:020000040800F2
:100000001804002049010008DD0300084D03000822
:10001000D903000891010008C10500080000000094
:1000200000000000000000000000000001040008C3
:100030009501000800000000DF030008ED0400083F
:100040006301000863010008630100086301000800
:100050006301000863010008AD01000863010008A6
:1000600063010008630100086301000863010008E0
:1000700063010008630100086301000863010008D0
:1000800063010008630100086301000863010008C0
:1000900063010008630100086301000863010008B0
:1000A00063010008630100086301000863010008A0
:1000B0006301000863010008630100086301000890
:1000C0006301000863010008630100086301000880
:1000D0006301000863010008630100086301000870
:1000E000CD010008630100086301000863010008F6
:1000F0006301000863010008630100086301000850
:10010000630100086301000863010008630100083F
:10011000630100086301000863010008630100082F
:10012000630100086301000863010008630100081F
:10013000DFF810D000F01AF800480047E505000885
:10014000AFF30080180400200648804706480047A7
:10015000FEE7FEE7FEE7FEE7FEE7FEE7FEE7FEE777
:10016000FEE7FEE7F504000831010008064C074DE4
:1001700006E0E06840F0010394E807009847103477
:10018000AC42F6D3FFF7D8FF18060008380600087F
:1001900000BFFEE7704700000349086000BF024946
:1001A00009680029FBD170471400002010B5012018
:1001B00000F024F830B12021034800F0BEF80120FF
:1001C00000F016F810BD0000000C014010B54FF40F
:1001D000005000F013F838B10121044800F0ADF8E8
:1001E0004FF4005000F004F810BD0000000C014076
:1001F00001490860704700001404014001460020D6
:100200000022074B1B6803EA0102054B14331B68ED
:100210000B4013B10AB1012000E00020704700003C
:10022000000401402DE9F04102460025002600208F
:1002300000230024002791F803C00CF00F0591F86B
:1002400003C00CF0100CBCF1000F03D091F802C0F9
:100250004CEA050591F800C0BCF1000F31D01468DC
:1002600000202BE04FF0010C0CFA00F3B1F800C0B5
:100270000CEA03069E4220D183004FF00F0C0CFACB
:1002800003F7BC4305FA03FC4CEA040491F803C0ED
:10029000BCF1280F06D14FF0010C0CFA00FCC2F89B
:1002A00014C00AE091F803C0BCF1480F05D14FF02B
:1002B000010C0CFA00FCC2F810C0401C0828D1D375
:1002C0001460B1F800C0BCF1FF0F34DD54680020A9
:1002D0002EE000F1080C4FF0010808FA0CF3B1F819
:1002E00000C00CEA03069E4221D183004FF00F0CA0
:1002F0000CFA03F7BC4305FA03FC4CEA040491F83A
:1003000003C0BCF1280F05D100F1080C08FA0CF865
:10031000C2F8148091F803C0BCF1480F07D100F176
:10032000080C4FF0010808FA0CF8C2F81080401CC5
:100330000828CED35460BDE8F081C2684A40C2604C
:1003400070470AB1016100E04161704700BFFEE7FC
:100350000448006820B103480068401E0149086055
:10036000704700001400002010B50022202107482B
:10037000FFF7E7FF012211460448FFF7E2FF0122E1
:1003800002210248FFF7DDFF10BD0000000C014014
:1003900008B50121082000F023F82020ADF8000066
:1003A00003208DF8020010208DF8030069460948EB
:1003B000FFF738FF0120ADF8000069460548FFF758
:1003C00031FF0220ADF8000069460248FFF72AFF1E
:1003D00008BD0000000C014000BFFEE770477047F9
:1003E00029B1064A92690243044B9A6104E0034A28
:1003F00092698243014B9A617047000000100240ED
:10040000704710B500F002F810BD00000CB50020D8
:10041000019000903348006840F480303149086012
:1004200000BF3048006800F4003000900198401C84
:100430000190009818B90198B0F5A06FF1D1294842
:10044000006800F4003010B10120009001E00020AD
:1004500000900098012843D12348006840F0100024
:10046000214908600846006820F00300086008463B
:10047000006840F0020008601A4840681949486066
:100480000846406848600846406840F4806048601C
:100490000846406820F47C1048600846406840F4F4
:1004A000E81048600846006840F08070086000BFAF
:1004B0000C48006800F000700028F9D00948406836
:1004C00020F00300074948600846406840F00200F9
:1004D000486000BF0348406800F00C000828F9D1CC
:1004E0000CBD0000001002400020024010B5FFF7D4
:1004F0002FFF10BD10B51348006840F001001149EE
:10050000086008464068104908400E49486008469F
:1005100000680E4908400B4908600846006820F44E
:10052000802008600846406820F4FE0048604FF4D0
:100530001F008860FFF765FF4FF000600449086006
:1005400010BD0000001002400000FFF8FFFFF6FEA3
:1005500008ED00E030B516480068164AB0FBF2F12D
:10056000B1F1807F01D301201DE021F07F40401ECA
:100570004FF0E022506150170F22002807DA1307CE
:100580001D0E0D4B00F00F04241F1D5503E0130733
:100590001C0E0A4B1C5400BF00204FF0E02290615B
:1005A00007201061002008B100BFFEE730BD000049
:1005B00000000020A086010018ED00E000E400E04B
:1005C00000BFFEE702E008C8121F08C1002AFAD1E6
:1005D00070477047002001E001C1121F002AFBD1C3
:1005E00070470000FFF7D4FEFFF7BEFEFFF7B2FF33
:1005F00000BF20210648FFF7A0FE0648FFF7CCFD0C
:1006000020210348FFF799FE0248FFF7C5FDF0E7F8
:10061000000C0140A0860100380600080000002000
:1006200018000000C405000850060008180000204B
:1006300000040000D405000800A24A0400000000E5
:100640000000000001020304060708090000000082
:0400000508000149A5
:00000001FF
