:020000040800F2
:100000002806002049010008E10E0008F503000859
:10001000DD0E000833020008E512000800000000B1
:10002000000000000000000000000000F90F0008C0
:100030003702000800000000E30E0008E510000889
:100040006301000863010008630100086301000800
:1000500063010008630100084D0200086301000805
:1000600063010008630100086301000863010008E0
:1000700063010008630100086301000863010008D0
:1000800063010008630100086301000863010008C0
:1000900063010008630100086301000863010008B0
:1000A00063010008630100086301000863010008A0
:1000B0006301000863010008630100086301000890
:1000C0006301000863010008630100086301000880
:1000D0006301000863010008630100086301000870
:1000E0006D02000863010008630100086301000855
:1000F0006301000863010008630100086301000850
:10010000630100086301000863010008630100083F
:10011000630100086301000863010008630100082F
:10012000630100086301000863010008630100081F
:10013000DFF810D000F04CF800480047A517000881
:10014000AFF3008028060020064880470648004795
:10015000FEE7FEE7FEE7FEE7FEE7FEE7FEE7FEE777
:10016000FEE7FEE7ED100008310100082DE9F05F21
:100170000546002092469B46884606468146402416
:100180001BE0284641464746224600F042F85346C7
:100190005A46C01A914110D311461846224600F023
:1001A00029F82D1A67EB01084F462246012000214D
:1001B00000F020F817EB00094E41201EA4F10104C5
:1001C000DFDC484631462A464346BDE8F09F000042
:1001D000064C074D06E0E06840F0010394E8070094
:1001E00098471034AC42F6D3FFF7A6FF2C1800084E
:1001F0004C180008202A04DB203A00FA02F1002003
:1002000070479140C2F1200320FA03F31943904054
:100210007047202A04DB203A21FA02F000217047BF
:1002200021FA02F3D040C2F120029140084319465E
:10023000704700BFFEE7704701B502E00098401E1E
:10024000009000980028F9D108BD000010B50120E9
:1002500000F024F830B12021034800F0C2F801205A
:1002600000F016F810BD0000000C014010B54FF46E
:10027000005000F013F838B10121044800F0B1F843
:100280004FF4005000F004F810BD0000000C0140D5
:100290000149086070470000140401400146002035
:1002A0000022074B1B6803EA0102054B14331B684D
:1002B0000B4013B10AB1012000E00020704700009C
:1002C000000401402DE9F0410246002500260020EF
:1002D00000230024002791F803C00CF00F0591F8CB
:1002E00003C00CF0100CBCF1000F03D091F802C059
:1002F0004CEA050591F800C0BCF1000F31D014683C
:1003000000202BE04FF0010C0CFA00F3B1F800C014
:100310000CEA03069E4220D183004FF00F0C0CFA2A
:1003200003F7BC4305FA03FC4CEA040491F803C04C
:10033000BCF1280F06D14FF0010C0CFA00FCC2F8FA
:1003400014C00AE091F803C0BCF1480F05D14FF08A
:10035000010C0CFA00FCC2F810C0401C0828D1D3D4
:100360001460B1F800C0BCF1FF0F34DD5468002008
:100370002EE000F1080C4FF0010808FA0CF3B1F878
:1003800000C00CEA03069E4221D183004FF00F0CFF
:100390000CFA03F7BC4305FA03FC4CEA040491F899
:1003A00003C0BCF1280F05D100F1080C08FA0CF8C5
:1003B000C2F8148091F803C0BCF1480F07D100F1D6
:1003C000080C4FF0010808FA0CF8C2F81080401C25
:1003D0000828CED35460BDE8F081416170470161C7
:1003E0007047C2684A40C26070470AB1016100E0CC
:1003F0004161704700BFFEE721B1028842F480628C
:10040000028004E002884FF6FF331A4002807047F2
:1004100038B50121082000F075FDC020ADF80000BE
:1004200003208DF8020014208DF8030069461D4852
:10043000FFF748FF40211B48FFF7D1FF80211948F3
:10044000FFF7CDFF002411E040211648FFF7C5FF5C
:100450004FF47A70FFF7F0FE40211248FFF7BFFF1C
:100460004FF47A70FFF7E8FE601CC4B2092CEBDB96
:1004700080210C48FFF7B1FF4FF47A70FFF7DCFEE4
:1004800040210848FFF7ABFF4FF47A70FFF7D4FE26
:1004900080210448FFF7A3FF4FF47A70FFF7CCFEEA
:1004A00038BD0000000C014070B502460024002554
:1004B00000230020958A138B1B0445EA030626F0CF
:1004C0007F4404EA01068E4201D1012000E00020B1
:1004D00070BD002221F07F42D3438382704721B157
:1004E000028842F00102028004E002884FF6FE73A7
:1004F0001A4002807047000070B505460E4614464B
:100500004FF420408149086011E080490868411E8D
:100510007E4A116058B901217D4800F0D7FA0121C7
:100520007B48FFF769FF092000F08AFB70BD4FF49C
:100530000031774800F0D6FA0028E6D1012174484E
:1005400000F0B8FA4FF480507049086011E06F492C
:100550000868411E6D4A116058B901216C4800F0CD
:10056000B5FA01216A48FFF747FF0A2000F068FB4F
:10057000DCE768496648FFF797FF0028E7D0664840
:1005800001780022624800F050FB4FF480505F4930
:10059000086011E05D490868411E5C4A116058B965
:1005A00001215B4800F092FA01215948FFF724FF2E
:1005B0000B2000F045FBB9E758495548FFF774FF99
:1005C0000028E7D001215248FFF789FF3146504803
:1005D00000F034FB4FF480504C49086011E04B4967
:1005E0000868411E494A116058B90121484800F085
:1005F0006DFA01214648FFF7FFFE0C2000F020FBBA
:1006000094E74649891C4248FFF74EFF0028E6D090
:1006100001213F4800F04EFA4FF480503B490860FA
:1006200011E03A490868411E384A116058B9012161
:10063000374800F04BFA01213548FFF7DDFE0D2069
:1006400000F0FEFA72E733493148FFF72DFF00282A
:10065000E7D03148017801222D4800F0E6FA4FF446
:1006600080502A49086011E028490868411E274A3D
:10067000116058B90121264800F028FA01212448C8
:10068000FFF7BAFE0E2000F0DBFA4FE72149491CC4
:100690001F48FFF709FF0028E6D02EE0012C07D104
:1006A00000211B48FFF7A8FE0121194800F00EFAAF
:1006B0004FF480501549086011E014490868411E44
:1006C000124A116058B90121114800F0FFF90121C7
:1006D0000F48FFF791FE0F2000F0B2FA26E70D4910
:1006E0003F310B48FFF7E0FE0028E6D0084800F055
:1006F00098FA28706D1C601E84B2002CCED10121A6
:100700000348FFF779FE012010E700001C000020DD
:100710000054004001000300180000208200070080
:100720002DE9F04707460D4614464FF00008C14634
:10073000C24600262846E91705EB5171C910A5EB02
:10074000C10101F0FF0ACAF10800C6B22046E11754
:1007500004EB5171C1F3C708E11704EB5171C910E3
:10076000A4EBC10101F0FF09BAF1000F28D1B8F1E3
:10077000000F07D14A462946384600F067F800F0D6
:1007800027F960E00AE008222946384600F05EF8C2
:1007900000F01EF905F10800C5B20837B8F10000F5
:1007A000A8F1010101F0FF08EDD1B9F1000F4AD025
:1007B0004A462946384600F049F800F009F942E077
:1007C000B8F1000F07D14A462946384600F03EF8F6
:1007D00000F0FEF837E0A01B84B22046E11704EBDE
:1007E0005171C1F3C708E11704EB5171C910A4EBB3
:1007F000C10101F0FF094EB132462946384600F0EA
:1008000025F800F0E5F8A819C5B237440AE0082237
:100810002946384600F01AF800F0DAF805F1080029
:10082000C5B20837B8F10000A8F1010101F0FF08D6
:10083000EDD1B9F1000F06D04A462946384600F0FE
:1008400005F800F0C5F8BDE8F087000070B5044673
:100850000E4615464FF420405849086011E05749AC
:100860000868411E554A116058B90121544800F0EA
:100870002DF901215248FFF7BFFD042000F0E0F9F7
:1008800070BD4FF400314E4800F02CF90028E6D13D
:1008900001214B4800F00EF94FF4805047490860A1
:1008A00011E046490868411E444A116058B90121C7
:1008B000434800F00BF901214148FFF79DFD052059
:1008C00000F0BEF9DCE73F493D48FFF7EDFD0028A9
:1008D000E7D03D4801780022394800F0A6F94FF4EE
:1008E00080503649086011E034490868411E334A97
:1008F000116058B90121324800F0E8F80121304870
:10090000FFF77AFD062000F09BF9B9E72F492C4844
:10091000FFF7CAFD0028E7D03146294800F08EF9DC
:100920004FF480502549086011E024490868411EB1
:10093000224A116058B90121214800F0C7F801216D
:100940001F48FFF759FD072000F07AF998E71F4983
:10095000891C1B48FFF7A8FD0028E6D022E021787B
:10096000174800F06BF9641C4FF48050134908607D
:1009700011E012490868411E104A116058B901215E
:100980000F4800F0A3F801210D48FFF735FD0820BE
:1009900000F056F974E70D49891C0948FFF784FDFA
:1009A0000028E6D0281EA5F10101CDB2D7D1012142
:1009B000034800F08BF8012062E700001C000020D3
:1009C00000540040010003001800002082000700CE
:1009D00008B50020009000BF01210F4800F06AF820
:1009E00014210D4800F012F900900C480178002203
:1009F000094800F01AF91421074800F007F900F03F
:100A000002000028E8D006490348FFF762FD0121F3
:100A1000014800F05BF808BD0054004018000020B9
:100A20000004001000B585B0FFF7F2FC0121480575
:100A300000F058FA0121082000F064FA4020ADF8D7
:100A4000100003208DF812001C208DF8130004A95B
:100A50001448FFF737FC8020ADF8100004A91148B6
:100A6000FFF730FC4FF48060ADF80A000001ADF8EC
:100A70000C000D4800904BF6FF70ADF8060000200A
:100A8000ADF804000A20ADF808006946074800F0F8
:100A900047F801210548FFF722FDA02004490880FE
:100AA00005B000BD000C0140801A06000054004053
:100AB0001800002021B1028842F48072028004E014
:100AC00002884FF6FF631A400280704721B1028806
:100AD00042F40072028004E002884FF6FF531A408D
:100AE000028070470CB5024600200023019300935A
:100AF00000920B0F019321F07F41019B1BB1009BE2
:100B00001433009303E0090C009B18330093009BFF
:100B10001B680B400BB1012000E000200CBD000061
:100B20002DE9F04385B004460D460026B146042762
:100B3000DFF8CC80A6884FF6C0700640684600F00B
:100B4000F1F9DDF808802F48B8FBF0F01FFA80F9C2
:100B500046EA0906A68020884FF6FE7108402080EC
:100B600000262949286888420CD828684000B8FB2C
:100B7000F0F087B2042F00DA04273E4309F10100A8
:100B8000208427E0E8884BF6FF71884206D1286868
:100B900000EB4000B8FBF0F087B209E0286800EBFA
:100BA000C00101EB0010B8FBF0F087B247F48047BA
:100BB000C7F30B0008B947F0010747F400400643AC
:100BC0004FF4967009FB00F04FF47A7190FBF1F04E
:100BD000401C2084A683208840F0010020802688C5
:100BE0004FF6F5300640A8886989084306432680F9
:100BF000A88929890843208105B0BDE8F083000059
:100C000000127A0040420F00A086010008B502469B
:100C100000200090009200980844009000980088FE
:100C200008BD0146088AC0B2704712B141F0010107
:100C300002E04FF6FE73194001827047018270474F
:100C400010B50446214602A000F04EFB002010BD66
:100C50003C3C2D454550524F4D2D4552524F522D43
:100C60003E3E204932432074696D65206F757421C2
:100C7000206572726F72436F6465203D2025640A9F
:100C80000000000010B52CA000F02EFB002413E0A3
:100C900032490C550846015D31A000F025FBE117F3
:100CA00004EB11710911A4EB01110F2902D12EA03F
:100CB00000F01AFB601C84B2FF2CE9DB4FF4807259
:100CC00000212648FFF72CFD28A000F00DFB31A0E5
:100CD00000F00AFB4FF4807200213648FFF70CFC4D
:100CE000002421E03348005D1C49095D884209D099
:100CF0003048015D1AA000F0F7FA2FA000F0F4FAD6
:100D0000002010BD2B48015D15A000F0EDFAE117A1
:100D100004EB11710911A4EB01110F2902D112A0EA
:100D200000F0E2FA601C84B2FF2CDBDB2DA000F0A7
:100D3000DBFA0120E5E700003C3C2D454550524FD1
:100D40004D2D494E464F2D3E3E20577269747465B5
:100D50006E20446174613A200A00000024000020E3
:100D600030782530325800000A0D00003C3C2D45FB
:100D70004550524F4D2D494E464F2D3E3E2046691F
:100D80006E6973686564205772697474696E670A66
:100D9000000000003C3C2D454550524F4D2D494E22
:100DA000464F2D3E3E204461746120526561643A95
:100DB000200A0000240100203C3C2D454550524FA4
:100DC0004D2D4552524F522D3E3E20526573756C4B
:100DD0007473206E6F74206D61746368696E670A46
:100DE000000000003C3C2D454550524F4D2D494ED2
:100DF000464F2D3E3E205465737420446F6E650A45
:100E0000000000000448006820B103480068401E4C
:100E100001490860704700001400002010B500224E
:100E200020210748FFF7E1FA012211460448FFF7A5
:100E3000DCFA012202210248FFF7D7FA10BD0000B8
:100E4000000C014010B5012220210748FFF7CDFA20
:100E5000002201210448FFF7C8FA012202210248BA
:100E6000FFF7C3FA10BD0000000C014010B50122CD
:100E700020210748FFF7B9FA012211460448FFF77D
:100E8000B4FA002202210248FFF7AFFA10BD0000B9
:100E9000000C014008B50121082000F033F82020A3
:100EA000ADF8000003208DF8020010208DF803003B
:100EB00069460948FFF706FA0120ADF800006946C7
:100EC0000548FFF7FFF90220ADF800006946024827
:100ED000FFF7F8F908BD0000000C014000BFFEE775
:100EE0007047704729B1064AD2690243044BDA6160
:100EF00004E0034AD2698243014BDA617047000083
:100F00000010024029B1064A92690243044B9A61DB
:100F100004E0034A92698243014B9A6170470000E2
:100F20000010024030B500210022002400232D4D86
:100F30006D6805F00C0121B1042905D0082923D1E1
:100F400005E0294D056022E0274D05601FE0254D95
:100F50006D6805F47012234D6D6805F48034022528
:100F600005EB92421CB9214D554305600BE01D4D28
:100F70006D6805F400351DB11C4D5543056002E058
:100F8000194D5543056002E0174D056000BF00BFD5
:100F9000144D6D6805F0F0010909154D6B5C05688D
:100FA000DD4045600F4D6D6805F4E061090A104DA4
:100FB0006B5C4568DD4085600A4D6D6805F46051E5
:100FC000C90A0B4D6B5C4568DD40C560054D6D6819
:100FD00005F44041890B074D6B5CC568B5FBF3F523
:100FE000056130BD0010024000127A0000093D008A
:100FF0000000002010000020704710B500F002F83B
:1010000010BD00000CB5002001900090334800682E
:1010100040F480303149086000BF3048006800F477
:10102000003000900198401C0190009818B9019878
:10103000B0F5A06FF1D12948006800F4003010B17C
:101040000120009001E0002000900098012843D189
:101050002348006840F010002149086008460068F5
:1010600020F0030008600846006840F002000860B5
:101070001A48406819494860084640684860084670
:10108000406840F4806048600846406820F47C1066
:1010900048600846406840F4E81048600846006828
:1010A00040F08070086000BF0C48006800F00070DD
:1010B0000028F9D00948406820F00300074948603B
:1010C0000846406840F00200486000BF034840689E
:1010D00000F00C000828F9D10CBD000000100240FF
:1010E0000020024010B5FFF78DFE10BD10B513486B
:1010F000006840F001001149086008464068104946
:1011000008400E494860084600680E4908400B49EF
:1011100008600846006820F480200860084640689F
:1011200020F4FE0048604FF41F008860FFF765FF61
:101130004FF000600449086010BD0000001002403C
:101140000000FFF8FFFFF6FE08ED00E000B585B0F7
:1011500001218803FFF7D6FE01210420FFF7D2FE0C
:101160004FF4E13001900020ADF810000C20ADF8F4
:101170000E000020ADF80800ADF80C00ADF80A0034
:1011800001A9114800F03EF84FF40070ADF80000DE
:1011900003208DF8020018208DF8030069460B48E3
:1011A000FFF790F84FF48060ADF8000004208DF850
:1011B000030069460548FFF785F80121024800F061
:1011C00007F805B000BD00000038014000080140EC
:1011D00021B1828942F40052828104E082894DF675
:1011E000FF731A408281704702460020B1F5007FEC
:1011F00000D100BF13880B400BB1012000E000209C
:10120000704700002DE9F04786B005460E460024E1
:10121000A24600BFA1460027B08900B100BF2F46FB
:101220002C8A4CF6FF700440F08804432C82AC8971
:101230004EF6F3100440B0883189084371890843A1
:101240000443AC81AC8A4FF6FF400440B0890443AC
:10125000AC8201A8FFF766FE1F48874202D1DDF885
:1012600010A001E0DDF80CA0A88900F4004040B116
:101270000AEBCA0000EB0A1031684900B0FBF1F834
:1012800007E00AEBCA0000EB0A1031688900B0FBE6
:10129000F1F86420B8FBF0F004012009642101FB9F
:1012A0001089A88900F4004040B1322000EBC90049
:1012B000B0FBF1F000F00700044308E0322000EB3F
:1012C00009106421B0FBF1F000F00F0004432C8101
:1012D00006B0BDE8F087000000380140C1F3080205
:1012E0008280704700BFFEE70FB4054B10B503A91D
:1012F000044A029800F018F810BC5DF814FB0000D6
:10130000811700082000002002E008C8121F08C151
:10131000002AFAD170477047002001E001C1121F76
:10132000002AFBD1704700002DE9FF4F8DB00F461A
:101330000546002606E025280BD0DDE90F12904770
:101340006D1C761C28780028F5D111B03046BDE818
:10135000F08F0024A246A1460122E94900E004439F
:1013600015F8013F203B02FA03F00842F7D1287834
:101370002A2810D06FF02F022878A0F13001092917
:1013800014D80AEB8A0102EB410144F0020400EB9D
:10139000010A6D1CF0E701CF5FEA000A03D544F4AF
:1013A0000054CAF1000A44F002046D1C28782E286B
:1013B00017D115F8010F44F004042A280ED06FF05D
:1013C0002F022878A0F1300109290AD809EB8901F8
:1013D00002EB410100EB01096D1CF2E757F8049B99
:1013E0006D1C28786C280FD006DC4C2817D0682894
:1013F0000DD06A2814D104E0742810D07A280FD1B7
:101400000DE044F400140AE044F4801401E044F4D4
:1014100040146978814202D104F580146D1C6D1C62
:1014200028786E281ED00CDC632830D004DC00281D
:101430008BD0582811D19FE0642867D069280CD13F
:1014400064E073282DD004DC6F2872D0702804D19A
:1014500094E075286ED078286DD0DDE90F129047A2
:10146000761C4BE1C4F30250022806D0032809D0B1
:10147000042801CF09D0066040E101CFF117C0E98F
:1014800000613BE101CF068038E1067036E117F8D4
:10149000040B8DF8000000208DF80100EB460120C0
:1014A00003E057F804BB4FF0FF3061074FF0000135
:1014B00002D40DE008F10101884649450FDA804564
:1014C000F8DB1BF808100029F4D108E008F101014D
:1014D00088468142FADB1BF808100029F6D1DDE9C5
:1014E0000F23AAEB08008146214600F031F9304471
:1014F00000EB080604E0DDE90F121BF8010B904732
:10150000B8F10108F7D221464846F2E00A21C4F3B7
:1015100002524FF0000B0891022A04D001CFC117EC
:10152000032A09D00AE0FF1D27F00707F7E80201A8
:1015300008E02CE01EE01FE000B2C117042A01D130
:1015400040B2C117021E71F1000206DA0023D0EB8F
:10155000030063EB01012D2202E0220504D52B22BA
:101560008DF82420012203E0E20701D02022F7E7D2
:10157000904653E00A210BE0102109E010214FF0C2
:10158000000B44F004044FF00809089103E008211F
:101590004FF0000B0891C4F30252022A04D001CF8D
:1015A0000021032A06D006E0FF1D27F00707F7E811
:1015B000020103E080B2042A00D1C0B24FF000085B
:1015C00022072BD52A78702A07D0DDF820C08CF0AE
:1015D000100C5CEA0B0C05D00EE040228DF82420A4
:1015E000012208E050EA010306D030238DF82430B0
:1015F0008DF8252002229046089B83F0080353EAC9
:101600000B030BD150EA010201D1620706D530224B
:101610008DF824204FF00108A9F101092A78582AF1
:1016200004D038A20B9208AA0A920BE03AA2F9E77A
:101630005B46089AFEF79AFD0B9B9B5C0A9A521E2A
:101640000A92137050EA0102F2D10A98ADEB000041
:1016500000F1200B600702D524F4803401E04FF044
:101660000109D94502DDA9EB0B0000E0002000EBE9
:101670000B0141440890AAEB010AE00306D4DDE91E
:101680000F232146504600F063F806444FF000094E
:1016900008E009A911F80900DDE90F12904709F1E6
:1016A0000109761CC145F4DBE0030CD5DDE90F230D
:1016B0002146504600F04CF8064404E0DDE90F12E4
:1016C00030209047761C0899481E08900029F5DCC8
:1016D00008E00A980A990078491C0A91DDE90F127E
:1016E0009047761CBBF10001ABF1010BF1DC214608
:1016F0005046DDE90F2300F019F806446D1C21E681
:1017000009280100303132333435363738396162D7
:10171000636465660000000030313233343536379B
:101720003839414243444546000000002DE9F0416C
:10173000044600251E461746880404D405E03946B1
:101740002020B0476D1C641EF9D52846BDE8F08105
:101750002DE9F041044600251E469046C80301D5F8
:10176000302700E02027880404D505E041463846AC
:10177000B0476D1C641EF9D52846BDE8F081000015
:1017800070B504460D46A1B20548FFF7A7FD00BF9E
:1017900080210348FFF728FD0028F9D0204670BDBE
:1017A0000038014010B5FFF775FBFFF75FFBFFF74F
:1017B000CDFC09A0FFF798FDFFF734F9FFF762FAB7
:1017C000012802D1FFF73EFB04E0FFF727FB10A042
:1017D000FFF78AFD002010BD0D0A205468697320B0
:1017E000697320666F722074657374696E6720492F
:1017F000324320436F6D6D756E69636174696F6EFE
:10180000207769746820454550524F4D200D0A00DD
:101810000D0A20526573756C74206E6F74206D61B3
:10182000746368696E670D0A000000004C180008B8
:1018300000000020240000000813000870180008B1
:101840002400002004060000181300080000000017
:101850000102030401020304060708090204060842
:101860000000000000000000000000000000000078
:0400000508000149A5
:00000001FF
