:020000040800F2
:10000000A038002049010008C5040008E5030008E5
:10001000C104000835020008C10D000800000000FE
:10002000000000000000000000000000D50A0008E9
:100030003902000800000000C7040008C10B0008D6
:100040006301000863010008630100086301000800
:1000500063010008630100083D0200086301000815
:1000600063010008630100086301000863010008E0
:1000700063010008630100086301000863010008D0
:1000800063010008630100086301000863010008C0
:1000900063010008630100086301000863010008B0
:1000A00063010008630100086301000863010008A0
:1000B0006301000863010008630100086301000890
:1000C0006301000863010008630100086301000880
:1000D0006301000863010008630100086301000870
:1000E0005D02000863010008630100086301000865
:1000F0006301000863010008630100086301000850
:10010000630100086301000863010008630100083F
:10011000630100086301000863010008630100082F
:10012000630100086301000863010008630100081F
:10013000DFF810D000F06CF800480047FD290008F7
:10014000AFF30080A03800200648804706480047EB
:10015000FEE7FEE7FEE7FEE7FEE7FEE7FEE7FEE777
:10016000FEE7FEE7C90B00083101000840EA010381
:100170009B0703D009E008C9121F08C0042AFAD25D
:1001800003E011F8013B00F8013B521EF9D2704721
:10019000D2B201E000F8012B491EFBD270470022C9
:1001A000F6E710B513460A4604461946FFF7F0FF76
:1001B000204610BDCAB2401E10F8011F8A4202D06C
:1001C0000029F9D10020704730B5044600200346CD
:1001D00000E05B1C934203D2E05CCD5C401BF8D096
:1001E00030BD30B50B46014600202022012409E035
:1001F00021FA02F59D4205D303FA02F5491B04FAE0
:1002000002F52844151EA2F10102F1DC30BD000008
:10021000064C074D06E0E06840F0010394E8070053
:1002200098471034AC42F6D3FFF786FFC434000879
:10023000E434000800BFFEE77047000010B501205D
:1002400000F024F830B12021034800F0C2F801206A
:1002500000F016F810BD0000000C014010B54FF47E
:10026000005000F013F838B10121044800F0B1F853
:100270004FF4005000F004F810BD0000000C0140E5
:100280000149086070470000140401400146002045
:100290000022074B1B6803EA0102054B14331B685D
:1002A0000B4013B10AB1012000E0002070470000AC
:1002B000000401402DE9F0410246002500260020FF
:1002C00000230024002791F803C00CF00F0591F8DB
:1002D00003C00CF0100CBCF1000F03D091F802C069
:1002E0004CEA050591F800C0BCF1000F31D014684C
:1002F00000202BE04FF0010C0CFA00F3B1F800C025
:100300000CEA03069E4220D183004FF00F0C0CFA3A
:1003100003F7BC4305FA03FC4CEA040491F803C05C
:10032000BCF1280F06D14FF0010C0CFA00FCC2F80A
:1003300014C00AE091F803C0BCF1480F05D14FF09A
:10034000010C0CFA00FCC2F810C0401C0828D1D3E4
:100350001460B1F800C0BCF1FF0F34DD5468002018
:100360002EE000F1080C4FF0010808FA0CF3B1F888
:1003700000C00CEA03069E4221D183004FF00F0C0F
:100380000CFA03F7BC4305FA03FC4CEA040491F8A9
:1003900003C0BCF1280F05D100F1080C08FA0CF8D5
:1003A000C2F8148091F803C0BCF1480F07D100F1E6
:1003B000080C4FF0010808FA0CF8C2F81080401C35
:1003C0000828CED35460BDE8F081416170470161D7
:1003D0007047C2684A40C26070470AB1016100E0DC
:1003E0004161704700BFFEE70448006820B1034840
:1003F0000068401E01490860704700002C00002082
:1004000010B5002220210748FFF7E7FF012211461F
:100410000448FFF7E2FF012202210248FFF7DDFF57
:1004200010BD0000000C014010B50122202107483A
:10043000FFF7D3FF002201210448FFF7CEFF01227E
:1004400002210248FFF7C9FF10BD0000000C014067
:1004500010B5012220210748FFF7BFFF01221146F6
:100460000448FFF7BAFF002202210248FFF7B5FF58
:1004700010BD0000000C014008B50121082000F06B
:1004800023F82020ADF8000003208DF80200102092
:100490008DF8030069460948FFF70CFF0120ADF80D
:1004A000000069460548FFF705FF0220ADF800008F
:1004B00069460248FFF7FEFE08BD0000000C01403F
:1004C00000BFFEE77047704729B1064A92690243B0
:1004D000044B9A6104E0034A92698243014B9A619A
:1004E000704700000010024030B5002100220024B7
:1004F00000232D4D6D6805F00C0121B1042905D0B4
:10050000082923D105E0294D056022E0274D05602B
:100510001FE0254D6D6805F47012234D6D6805F4DC
:100520008034022505EB92421CB9214D55430560EC
:100530000BE01D4D6D6805F400351DB11C4D554394
:10054000056002E0194D5543056002E0174D056056
:1005500000BF00BF144D6D6805F0F0010909154D8D
:100560006B5C0568DD4045600F4D6D6805F4E0612A
:10057000090A104D6B5C4568DD4085600A4D6D6869
:1005800005F46051C90A0B4D6B5C4568DD40C560E0
:10059000054D6D6805F44041890B074D6B5CC568DE
:1005A000B5FBF3F5056130BD0010024000127A0082
:1005B00000093D00000000201000002021B1028849
:1005C00042F04002028004E002884FF6BF731A40F6
:1005D0000280704700B587B001210803FFF774FF60
:1005E00001211020FFF770FF01210420FFF76CFFAD
:1005F00001210420FFF768FF01210420FFF764FFB9
:100600000120ADF8180003208DF81A0010208DF895
:100610001B0006A92148FFF74DFE2020ADF8180069
:1006200018208DF81B0006A91D48FFF743FE402047
:10063000ADF8180006A91A48FFF73CFE8020ADF877
:10064000180006A91648FFF735FE01211348FFF7E9
:10065000BEFE0020ADF810000120ADF80C00022015
:10066000ADF80A000720ADF814000020ADF808002E
:10067000ADF80400ADF812004FF48270ADF806003A
:100680004FF40070ADF80E0001A9064800F0E4F93F
:1006900001210448FFF792FF07B000BD00100140A0
:1006A000000801400030014070B505460C46164672
:1006B00001211048FFF789FE032000F04DF9C4F333
:1006C000074000F049F9C4F3072000F045F9E0B213
:1006D00000F042F903E000F017F928706D1C301E9D
:1006E000A6F101018EB2F6D101210248FFF76FFE9B
:1006F00070BD0000001001402DE9F05F07460E4676
:1007000014464FF00009C846C2460025AB4606F025
:10071000FF0ACAF10000C5B22046E11704EB1161DF
:10072000C1F30729E11704EB11610912A4EB0121C0
:1007300001F0FF08BAF1000F23D1B9F1000F05D184
:1007400022463146384600F06BF867E009E04FF486
:1007500080723146384600F063F807F5807706F579
:100760008076B9F10000A9F1010101F0FF09EED195
:10077000B8F1000F52D042463146384600F050F8EA
:100780004CE0B9F1000F18D1A84510DDA8EB050029
:1007900000F0FF0B2A463146384600F041F82F445E
:1007A0002E445A463146384600F03AF836E0424682
:1007B0003146384600F034F830E0601B84B2204601
:1007C000E11704EB1161C1F30729E11704EB116193
:1007D0000912A4EB012101F0FF082A4631463846F0
:1007E00000F01EF82F442E4409E04FF48072314689
:1007F000384600F015F807F5807706F58076B9F1F0
:100800000000A9F1010101F0FF09EED1B8F1000FDC
:1008100004D042463146384600F002F8BDE8F09F69
:1008200070B505460C46164600F0F8F800F0CEF814
:1008300001211548FFF7C9FD022000F08DF8C4F32F
:10084000074000F089F8C4F3072000F085F8E0B213
:1008500000F082F8B6F5807F04DD4FF480760BA0BF
:1008600000F0B0FA03E0287800F076F86D1C301E36
:10087000A6F101018EB2F6D101210348FFF7A7FDD1
:1008800000F0A4F870BD0000001001403C3C2D4673
:100890004C4153482D4552524F522D3E3E2053500D
:1008A0004920466C617368207772697465207369AA
:1008B0007A6520746F6F206C61726765210A000091
:1008C0002DE9F041002400250026002701210D48D4
:1008D000FFF77BFD9F2000F03FF800F015F805467C
:1008E00000F012F8064600F00FF80746012105480F
:1008F000FFF76DFD280440EA062040EA0704204681
:10090000BDE8F0810010014010B5FF2000F024F890
:1009100010BD000010B5044600F080F800F056F855
:1009200001210C48FFF751FD202000F015F8C4F319
:10093000074000F011F8C4F3072000F00DF8E0B212
:1009400000F00AF801210348FFF741FD00F03EF8EE
:1009500010BD00000010014010B504464FF4805057
:10096000184908600BE0174801680068401E154AE6
:10097000106021B9002000F08DF8C0B210BD022136
:10098000114800F05BF80028EDD021460E4800F039
:1009900061F80BE00B4801680068401E094A1060CE
:1009A00021B9002000F076F8C0B2E7E7012106483F
:1009B00000F044F80028EDD0034800F048F8C0B239
:1009C000DCE70000300000200030014010B50121BC
:1009D0000948FFF7FAFC0520FFF7BEFF00BFFFF74D
:1009E00093FF044604F001000028F8D101210248D9
:1009F000FFF7EDFC10BD00000010014010B5012113
:100A00000548FFF7E2FCAB20FFF7A6FF01210248F3
:100A1000FFF7DDFC10BD00000010014010B5012102
:100A20000548FFF7D2FC0620FFF796FF0121024898
:100A3000FFF7CDFC10BD0000001001400246002071
:100A400013890B400BB1012000E0002070470146E4
:100A5000888970478181704710B50022028802F4AE
:100A600041520B884C8823438C882343CC882343F2
:100A70000C8923434C8923438C892343CC8923430A
:100A80001A430280838B4FF2FF74234083830B8AC7
:100A9000038210BD10B50446214602A000F092F971
:100AA000002010BD3C3C2D464C4153482D45525230
:100AB0004F522D3E3E205350492074696D65206F82
:100AC000757421206572726F72436F6465203D20DA
:100AD00025640A00704710B500F002F810BD000050
:100AE0000CB50020019000903348006840F480303D
:100AF0003149086000BF3048006800F400300090C1
:100B00000198401C0190009818B90198B0F5A06FA9
:100B1000F1D12948006800F4003010B101200090A4
:100B200001E0002000900098012843D1234800688C
:100B300040F01000214908600846006820F00300DA
:100B400008600846006840F0020008601A484068E3
:100B5000194948600846406848600846406840F4C3
:100B6000806048600846406820F47C104860084671
:100B7000406840F4E81048600846006840F0807023
:100B8000086000BF0C48006800F000700028F9D031
:100B90000948406820F0030007494860084640685B
:100BA00040F00200486000BF0348406800F00C00BD
:100BB0000828F9D10CBD00000010024000200240BE
:100BC00010B5FFF711FC10BD10B51348006840F0D8
:100BD00001001149086008464068104908400E4964
:100BE0004860084600680E4908400B4908600846FE
:100BF000006820F4802008600846406820F4FE0069
:100C000048604FF41F008860FFF765FF4FF00060F9
:100C10000449086010BD0000001002400000FFF809
:100C2000FFFFF6FE08ED00E000B585B00121880366
:100C3000FFF74AFC01210420FFF746FC4FF4E130A6
:100C400001900020ADF810000C20ADF80E0000203F
:100C5000ADF80800ADF80C00ADF80A0001A9114884
:100C600000F03EF84FF40070ADF8000003208DF85E
:100C7000020018208DF8030069460B48FFF71AFBA5
:100C80004FF48060ADF8000004208DF80300694641
:100C90000548FFF70FFB0121024800F007F805B0F7
:100CA00000BD0000003801400008014021B18289E8
:100CB00042F40052828104E082894DF6FF731A40AB
:100CC0008281704702460020B1F5007F00D100BF4D
:100CD00013880B400BB1012000E00020704700009A
:100CE0002DE9F04786B005460E460024A24600BF17
:100CF000A1460027B08900B100BF2F462C8A4CF6D0
:100D0000FF700440F08804432C82AC894EF6F31047
:100D10000440B08831890843718908430443AC8199
:100D2000AC8A4FF6FF400440B0890443AC8201A86E
:100D3000FFF7DAFB1F48874202D1DDF810A001E07F
:100D4000DDF80CA0A88900F4004040B10AEBCA000D
:100D500000EB0A1031684900B0FBF1F807E00AEB3C
:100D6000CA0000EB0A1031688900B0FBF1F864207A
:100D7000B8FBF0F004012009642101FB1089A88967
:100D800000F4004040B1322000EBC900B0FBF1F0AC
:100D900000F00700044308E0322000EB0910642152
:100DA000B0FBF1F000F00F0004432C8106B0BDE869
:100DB000F087000000380140C1F3080282807047CC
:100DC00000BFFEE70FB4054B10B503A9044A029813
:100DD00000F018F810BC5DF814FB000001280008B2
:100DE0004000002002E008C8121F08C1002AFAD102
:100DF00070477047002001E001C1121F002AFBD19B
:100E0000704700002DE9FF4F8BB09A460F4605460C
:100E1000002606E025280BD052460D9990476D1C00
:100E2000761C28780028F5D10FB03046BDE8F08F49
:100E30000024A0460122604900E0044315F8013F68
:100E4000203B02FA03F00842F7D128782E2817D168
:100E500015F8010F44F004042A280ED06FF02F0279
:100E60002878A0F1300109290AD808EB880102EBA3
:100E7000410100EB01086D1CF2E757F8048B6D1C73
:100E8000287869283ED006DC0028CDD063280BD016
:100E9000642804D136E0732810D075284BD0524610
:100EA0000D999047761C85E017F8040B8DF800002B
:100EB00000208DF80100E946012003E057F8049B6B
:100EC0004FF0FF3061074FF0000401D40AE0641CCA
:100ED00044450DDA8442FADB19F804100029F6D1F2
:100EE00006E0641C8442FCDB19F804100029F8D1E8
:100EF000264404E019F8010B52460D999047641EF0
:100F0000F8D257E001CF4FF00A0B002802DA404236
:100F10002D2102E0210504D52B218DF8241001217B
:100F200003E0E10705D02021F7E70DF12009089142
:100F30000CE00021F9E701CF4FF00A0BF9E7594621
:100F4000FFF74FF901F1300209F8012D0028F6D121
:100F5000ADEB090000F1200B600701D44FF0010850
:100F6000D84502DDA8EB0B0000E0002080460024FD
:100F700006E009A85246005D0D999047641C761C56
:100F800008988442F5DB04E0302052460D999047E2
:100F9000761CB8F10001A8F10108F5DC05E019F8AC
:100FA000010B52460D999047761CBBF10001ABF145
:100FB000010BF4DC6D1C34E7092801002DE9F04138
:100FC0000446884600202071401E2062414620468B
:100FD00002F07CF810B10420BDE8F08104F2322068
:100FE00001F0E7FC074694F83450EB2D03D0E92DCF
:100FF00001D0E82D43D14AF65520874208D1082276
:1010000023A104F18600FFF7DFF808B90020E3E729
:1010100004F13F0001F0CDFC06464120055D701E45
:10102000304060BBB6F5007F29DBB6F5805F26DC7B
:101030002DB3681E284010BB04F1420001F0B9FC3A
:10104000E8B14420005D401E012818D804F1450095
:1010500001F0AFFC98B104F1470001F0AAFC802830
:1010600006DA04F1540001F0AAFCB0F5803F06D383
:1010700004F14A0001F09DFC08B10020ACE74AF6FB
:101080005520874201D10220A6E70320A4E70000F3
:101090004641543332202020000000000246891EC1
:1010A0009069801E884201D8002070475389106BD8
:1010B00003FB0100F9E72DE9F04782468846DAF89C
:1010C0000040B8F1000F06D1276917B1A069B842F6
:1010D00015D8012713E04146504601F0A3FB054611
:1010E000022D02D20120BDE8F087681C08B928460D
:1010F000F9E7A069A84201D92846F4E747466069A4
:1011000008B90020EFE70026474518D17E1CA069EA
:10111000B04200D802263146504601F083FB054616
:10112000012D01D0681C08B92846DCE73DB12569CE
:10113000022D03D3A069A84200D92F460026E6B9A4
:101140003E4600BF761CA069B04204D80226BE42CB
:1011500001D90020C7E73146504601F063FB054640
:1011600005B909E0012D01D0681C08B92846BAE785
:10117000BE42E7D10020B6E700BF4FF0FF32314654
:10118000204601F0BDFF8146B9F1000F08D1B8F14A
:10119000000F05D032464146204601F0B1FF81469E
:1011A000B9F1000F0FD126616069A0B1D4E9051033
:1011B000801E81420FD86069401E6061607940F0F6
:1011C0000100607107E0B9F1010F02D14FF0FF306B
:1011D00000E001200646304685E700002DE9F35F78
:1011E0008946D9F80080009800F1200520220B21C3
:1011F0002846FEF7CDFF0020074606464FF0080BB5
:1012000000BF3046761C18F80040202C00DC4AE075
:101210002F2C01D05C2C0AD100E0761C18F80600B7
:101220002F28FAD018F806005C28F6D03BE02E2CC8
:1012300001D05F450BD3BBF10B0F01D02E2C02D098
:101240000620BDE8FC9F08274FF00B0BD9E720468E
:1012500000F0F8F8A8B13046761C18F800A0504607
:1012600000F00AF918B1ABF10100B84201D806202C
:10127000E7E738467F1C2C5438467F1C05F800A051
:1012800010E0214614A0FEF795FF08B10620D8E72C
:10129000612C04DB7A2C02DCA4F12000C4B23846B5
:1012A0007F1C2C54ADE700BF08EB0600C9F8000016
:1012B0000FB90620C5E72878E52801D10520287058
:1012C000202C03DD18F80600202801DC042000E0B3
:1012D0000020E8720020B4E72A2B2C3A3B3C3D3E2C
:1012E0005B5D7C223F7F00002DE9FF4F85B09A4671
:1012F00003AA0121059800F075FA18B1012009B080
:10130000BDE8F08FDDF80C904FF03F08082701E0B2
:101310007806070E37B1B9FBF7F0B0FBF8F0B0F57F
:10132000806FF5D807B9FF274FF480515046FEF77C
:1013300036FF0AF5DF764FF0000B444669E0069869
:1013400050F82B50642D07D801D1484603E06420A3
:10135000B9FBF0F0684305466019484501D86019AB
:1013600001D3A9EB040505B959E0214606F10800AF
:1013700001F0E1FF294606F10C0001F0DCFF0798BF
:101380003071B4FBF8F0B0FBF7F00490B4FBF8F068
:10139000B0FBF7F107FB1100C0B20290B4FBF8F00C
:1013A00008FB1040401CC0B2019002987070C02130
:1013B000049801EA900001990843B0700498F07015
:1013C0006019401EB0FBF8F0B0FBF7F00490601914
:1013D000401EB0FBF8F0B0FBF7F107FB1100C0B204
:1013E00002906019401EB0FBF8F108FB1100401C90
:1013F000C0B2019002987071C021049801EA900077
:1014000001990843B0710498F07110360BF1010B8B
:101410002C44BBF1040F02D20CB14C458FD300BF5A
:101420004AF655210AF5FF7001F07FFF01230022E3
:101430005146059800F032FA08B101205FE700201C
:101440005DE7000001460B48007888420FDC094840
:101450004078884201DB0120704706488078884246
:1014600005DC0448C078884201DB0120F4E7002055
:10147000F2E700008C3400080146104800798842E9
:1014800019DC0E484079884201DB012070470B4887
:101490008079884205DC0948C079884201DB012057
:1014A000F4E70648007A884205DC0448407A88421E
:1014B00001DB0120EAE70020E8E700008C340008A7
:1014C0002DE9F04104460E46D4F800800021204664
:1014D00000F019F90546EDB9002700BF4046A169A3
:1014E00001F0F4FD054605B113E0E0690078E52858
:1014F00002D0E069007820B9781C0746B04201D1DB
:1015000007E000270121204600F06FF80546002D76
:10151000E4D000BF042D00D107252846BDE8F081A6
:101520002DE9F04704468946204601F06BFF10B1D3
:101530000120BDE8F08749462046FFF7AFFD06468B
:1015400026624FF4805104F13400FEF728FE04F1C6
:1015500034080127002500E03D446089A84207D9EE
:10156000721960783B46414600F098F90028F3D0A4
:101570006089A84201D00120DBE70020D9E72DE9EE
:10158000F041044627680021204600F0BCF80546DB
:1015900015B12846BDE8F08100BF3846A16901F0C9
:1015A00095FD054605B11DE0E06906780EB90425F4
:1015B00018E0E069C07A00F03F00A071E069C07AED
:1015C00000F0080038B90B2204F12001E069FEF7B1
:1015D000FBFD00B906E00021204600F006F80546B4
:1015E000002DDAD000BF2846D4E72DE9F0410446AB
:1015F00088462668206900F12007B7F5001F01D34F
:101600000020A061A06910B90420BDE8F081B08974
:10161000B7FBF0F100FB1170002847D1A069401C16
:10162000A061606938B93089B0EB571F3ED80020FF
:10163000A0610420E9E7B089B7FBF0F07189491E89
:10164000084098BB2046616901F0ECF80546012D81
:1016500001D80220D9E7681C08B90120D5E7B06994
:10166000A8421DD8B8F1000F03D10020A0610420CA
:10167000CBE720466169FFF71EFD05460DB907203F
:10168000C3E7012D01D10220BFE7681C08B9012082
:10169000BBE729463046FFF743FF08B10120B4E716
:1016A000656129463046FFF7F9FCA0612761B089E2
:1016B000B7FBF0F100FB117106F134000844E06162
:1016C0000020A2E770B50446266801212046FFF7F6
:1016D000F7FE0546ADB93046A16901F0F7FC0546B5
:1016E0007DB92021E069FEF75AFDE069216A0160B9
:1016F000616A4160218D018194F82A108172012074
:101700003071284670BD2DE9F04104460E4625682B
:10171000B6F5001F02D206F01F0010B10220BDE88E
:10172000F0812661A7681FB92878032800DBEF6ADB
:1017300047B92889B0EB561F01D80220EFE7E86AC5
:10174000A0611DE06889A98900FB01F811E0394614
:10175000204601F067F80746781C08B90120DEE74B
:10176000022F02D3A869B84201D80220D7E7A6EB1E
:1017700008064645EBD239462846FFF78FFCA061A4
:101780006761A06908B90220C9E7A889B6FBF0F033
:10179000A1690844A061A889B6FBF0F100FB1161C2
:1017A00005F134000844E0610020B8E770B5044654
:1017B000012614B1012C13D101E0304670BDFEF7B3
:1017C00009FF4FF4FA7500BF281EA5F10105FBD1F2
:1017D000FFF714F9012000F049F806463046EDE71E
:1017E0000120EBE710B50346042413B1012B1CD1F3
:1017F00001E0204610BD012904D0022908D00329A8
:1018000011D10BE04FF4C060106000242046F1E7D6
:101810004FF48050106000242046EBE70120106058
:1018200000242046E6E72046E4E70420E2E72DE92D
:10183000F04105460E4614461F464FF0040815B108
:10184000012D11D102E04046BDE8F08104F500749D
:101850004FF6FF7000EA073221033046FEF724FFFF
:101860004FF000084046EFE70420EDE770B504466E
:10187000012514B1012C0DD101E0284670BDFFF700
:101880001FF80549884202D125F0010500E0012535
:101890002846F3E70120F1E71740EF002DE9F0417A
:1018A00005460E4614461F4615B1012D14D102E01F
:1018B0004046BDE8F08104F500742003FFF72AF8E4
:1018C0004FF6FF7000EA073221033046FEF714FF9F
:1018D0004FF000084046ECE70420EAE738B505463B
:1018E000284600F0A1FD04463CB96946284601F0AF
:1018F000AEFD04460CB900202860204638BD00002B
:101900002DE9FF4F99B00E4619A801F029F8039070
:101910000398002803DA0B201DB0BDE8F08FFE49C4
:10192000039851F8200028B10021FB4A039852F88F
:10193000200001700398C0B21690002015901698F0
:10194000FFF734FF0290029800F0010008B1032075
:10195000E2E7029800F0040008B10A20DCE706B9CB
:10196000EE4E70681290129820B912AA03211698B0
:10197000FFF738FF129840B11298B0F5004F04D825
:101980001298401E1299084008B10120129014AA22
:1019900002211698FFF726FF08B10120BCE7BDF829
:1019A0005000B0F5805F0BDCBDF85000B0F5007F53
:1019B00006DBBDF85000401EBDF85010084008B1CD
:1019C0000120A9E7307800F00F0018907078012806
:1019D00004DB7078022801DC707800E001200590BB
:1019E000B16889B1B168B1F5004F0DD8BDF85000AC
:1019F000C11700EBD1614911B268B2FBF1F301FBF1
:101A0000132109B9B16801E04FF400710491F06845
:101A1000B0F1807F05D8F068411E084008B9F06831
:101A200000E000200690BDF850100698B0FBF1F0E1
:101A30000690BDF850101C98B0FBF1F0139013986D
:101A400008B9112068E71B9C0CB9112064E74FF01E
:101A5000000ACDF83CA000BF0FAA01211698FFF79D
:101A6000C1FE08B1012057E7189800F0080040B9FE
:101A70000F983F2805D94FF03F0A0F98A0EB0A00B6
:101A80000F900F98802801D20E2045E700BF00BFBD
:101A90000698802801D980200690189800F002004E
:101AA00028B1189800F0010008B9032707E018983A
:101AB00000F0010008B913202EE7022700BF00BF85
:101AC00000F04AFF0F990844109000BF069D032FB5
:101AD0002DD195B90F984FEA50494FF0000B0125D1
:101AE00002E00BF1010B6D008D4830F81B0020B1B6
:101AF0008B4830F81B004845F3D90F98B0FBF5F838
:101B0000082000EB8800BDF850100844401EB0FBD0
:101B1000F1F0089020200990002007904FF6F57012
:101B2000804502D97F48804539D90E20F4E695B921
:101B30000F984FEA10394FF0000B012502E00BF12E
:101B4000010B6D00784830F81B0020B1764830F862
:101B50001B004845F3D90F98B0FBF5F840F6F57037
:101B6000804503D9042000EB480906E0012708EB73
:101B70004800401C032101EB5009BDF850004844C7
:101B8000401EBDF85010B0FBF1F008900120099004
:101B900004984001BDF85010B0FBF1F0079009988F
:101BA00050440E90059A08990E9801FB020107987F
:101BB00008440D9012990D980844401E491E20EAD1
:101BC00001010D98A1EB0009032F06D109984844A3
:101BD00009900E9848440E9013E00598B9FBF0F177
:101BE00000FB119038B1A9F101090998401C099036
:101BF0000E98401C0E900598B9FBF0F10898084427
:101C000008900D9800EB0510A0EB0A000F99884290
:101C100001D90E2080E60F9909980A1A05990898AB
:101C200000FB11210798081AB0FBF5F8032F0BD120
:101C30004FF6F570804507D8069818B968080690E1
:101C400000B135E00E2067E6022F28D14FF6F5707F
:101C5000804517D9069830B94020B0EB450F02D324
:101C60006800069024E0189800F0020008B10327ED
:101C70001EE0069820B968000690802800D817E07A
:101C80000E2049E640F6F570804508D8069820B940
:101C900068000690802800D80AE00E203CE6012F5C
:101CA00005D140F6F570804501D90E2034E600E0FC
:101CB0000CE700BFBDF850102046FEF770FA1BA0DD
:101CC000016821604168616001892181807AA07288
:101CD000BDF8501004F10B0001F027FB6573099863
:101CE00081B204F10E0001F020FB05982074032F4F
:101CF00001D1002000E0049881B204F1110001F04C
:101D000014FB0F98B0F5803F16D20F9881B204F102
:101D1000130001F00AFB14E034000020B434000882
:101D2000A4340008F5FFFF0F96340008EBFE904D39
:101D300053444F53352E300004F120000F9901F029
:101D4000FAFAF82060753F2104F1180001F0EDFA6D
:101D5000FF2104F11A0001F0E8FA514604F11C00D9
:101D600001F0E9FA032F25D104F14300109901F0A5
:101D7000E2FA04F12400089901F0DDFA022104F1ED
:101D80002C0001F0D8FA012104F1300001F0CDFA65
:101D9000062104F1320001F0C8FA802084F84000E6
:101DA000292084F84200132283A104F14700FEF7A2
:101DB000DDF916E004F12700109901F0BCFA08984B
:101DC00081B204F1160001F0B0FA802084F82400FA
:101DD000292084F8260013227CA104F12B00FEF7B1
:101DE000C5F94AF6552104F5FF7001F09EFA01236A
:101DF000524621461698FFF751FD08B101208BE5A8
:101E0000032F33D101230AF1060221461698FFF76A
:101E100045FDBDF850102046FEF7C1F97049204637
:101E200001F089FA6F4904F5F27001F084FAA8F123
:101E3000010104F5F47001F07EFA022104F5F67058
:101E400001F079FA4AF6552104F5FF7001F06DFAB8
:101E500001230AF1070221461698FFF71FFD01230F
:101E60000AF1010221461698FFF718FDBDF850202F
:101E7000139800FB02F12046FEF791F90E980C90A2
:101E80004FF0000B40E0032F0FD16FF00701204609
:101E900001F051FA391F201D01F04DFA6FF0704129
:101EA00004F1080001F047FA09E0012F01D14E4882
:101EB00001E06FF007000146204601F03CFA089867
:101EC000119000BF13991198884201D9139800E02E
:101ED000119881464B4621460C9A1698FFF7DEFC76
:101EE00008B1012018E5BDF850102046FEF757F95B
:101EF0000C9848440C901198A0EB0900119011988F
:101F00000028DFD10BF1010B05988345BBD3032FCC
:101F100001D1284600E00798119000BF139911984D
:101F2000884201D9139800E0119881464B4621461A
:101F30000C9A1698FFF7B2FC08B10120ECE40C985B
:101F400048440C901198A0EB0900119011980028BA
:101F5000E4D100BF032F02D10C2017900DE00F98A1
:101F6000B0F5803F02D30620179006E0022F02D181
:101F70000420179001E00120179000BF189800F08E
:101F8000080070B90F980A9000200B9023460AA908
:101F9000DDE91602FFF7A8F90190019808B1019850
:101FA000BAE4002211461698FFF71CFC08B1012084
:101FB000B2E40020B0E400004E4F204E414D4520D9
:101FC0002020204641543332202020004E4F204E06
:101FD000414D452020202046415420202020200033
:101FE0005252614172724161F8FFFF00F7B582B051
:101FF00016460398019001A800F0B2FC0446002C9C
:1020000002DA0B2005B0F0BD0F4850F8245025B17E
:1020100000200D4941F824002870029840B102992F
:102020004C700020029908700749029841F824007A
:102030000EB90020E6E7002202A903A800F0CCFEBA
:1020400007463846DEE70000340000202DE9F74758
:102050008DB0044616461CB9092010B0BDE8F087C3
:1020600006F03F06324601A90EA800F0B5FE05466F
:10207000002D70D1019820600198029002A80E995D
:1020800000F069FB05462DB99DF8330000F0800093
:1020900000B1062506F01C00002854D045B1042DDF
:1020A00003D102A8FFF70EFB054646F008060AE03A
:1020B00006F0040008B1082505E09DF80E0000F0C8
:1020C000110000B10725002D4FD106F008000028AF
:1020D0004BD000F041FC8146099901F10E004946C0
:1020E00001F029F9099901F11600494601F023F997
:1020F0000999019800F06FFC074620200999C872E1
:1021000000220999019801F022F9099901F11C00B6
:10211000002101F010F901200199087197B101988F
:10212000D0F820800022394602A801F0B1F8054617
:102130003DB94146019800F0C9FF0546781E019956
:10214000086100BF11E085B99DF80E0000F0100095
:1021500010B1042509E076E006F0020028B19DF8F0
:102160000E0000F0010000B107254DB906F008008F
:1021700008B146F040060198006A20620998606242
:10218000002D60D10999019800F025FCA060099903
:1021900001F11C0000F013FCE0600198C088A080F1
:1021A000267400206074E06160614FF4805104F196
:1021B0002800FDF7F4FF06F02000002843D0E06877
:1021C000002840D0E06860610198408901998989C0
:1021D00000FB01F9A768D4F80C800CE039462046D2
:1021E00000F020FB0746012F00D80225781C00B91B
:1021F0000125A8EB09080DB9C845EFD8A7610DBBAB
:1022000001988089B8FBF0F100FB1180D0B139460C
:102210000198FEF743FF8246BAF1000F01D1022573
:102220000FE001988089B8FBF0F05044E061E2696A
:1022300001994878012304F12801FFF7F8FA00B169
:10224000012500BF00BF0DB100202060284604E733
:102250002DE9FF4F85B0044615469B460698019030
:102260000020CBF8000003A9204601F0F0F804900C
:10227000049810B9607C049018B1049809B0BDE8C6
:10228000F08F207C00F0010008B90720F6E76169B3
:10229000E068401A02900298854200D9029DBEE093
:1022A000606903998989B0FBF1F201FB12000028F3
:1022B00079D1606903998989B0FBF1F00399498963
:1022C000491E00EA010ABAF1000F18D1606910B97D
:1022D000D4F8088004E02046A16900F0A3FA804603
:1022E000B8F1020F02D202206074C7E708F10100C2
:1022F00010B901206074C1E7C4F8188000BFA1695B
:102300000398FEF7CBFE064616B902206074B5E7C7
:10231000564403988089B5FBF0F9B9F1000F2FD02E
:102320000AEB090003994989884203D90398408937
:10233000A0EB0A09039948784B4632460199FFF70A
:1023400076FA10B10120607498E7207C00F08000DC
:1023500088B1E069801B48450DD2E1698B1B039968
:10236000B1F80CC0019903FB0C1003998A8904F1A0
:102370002801FDF7FBFE0398808900FB09F742E086
:10238000E069B04220D0207C00F0800080B1E2699A
:1023900003994878012304F12801FFF77FFA18B167
:1023A000012060746AE710E0207C00F07F00207458
:1023B000039948780123324604F12801FFF737FAE0
:1023C00010B10120607459E7E66160690399898959
:1023D000B0FBF1F201FB1200039989890F1AAF4299
:1023E00000D92F46606903998989B0FBF1F201FB9E
:1023F000120104F1280001EB00083A464146019819
:10240000FDF7B4FE00BFED1BDBF800003844CBF84D
:102410000000019838440190606938446061002DE3
:102420007FF43EAF002029E7F8B504466946204610
:1024300001F00DF80646002E45D1207C00F040004A
:10244000002840D0207C00F0800070B1E269009943
:102450004878012304F12801FFF720FA08B1012090
:10246000F8BD207C00F07F002074216A009800F005
:102470002DFE06463EBB656AE87A40F02000E87211
:102480002946A268206800F062FF05F11C00E1689F
:1024900000F051FF00F060FA0746394605F11600DA
:1024A00000F049FF002105F1120000F03EFF01207D
:1024B00000990871009800F05DFF0646207C00F04E
:1024C000BF00207400BF3046CAE72DE9FF4F85B03A
:1024D000044615469B46069802900020CBF8000063
:1024E00003A9204600F0B3FF0490049810B9607C63
:1024F000049018B1049809B0BDE8F08F207C00F07A
:10250000020008B90720F6E700BF60692844616946
:10251000884202D26069C0F1FF35D6E06069039954
:102520008989B0FBF1F201FB120000287DD16069BE
:1025300003998989B0FBF1F003994989491E00EAA2
:10254000010ABAF1000F1ED1606938B9A76857B9FE
:1025500000212046FEF7AFFD074604E02046A169B2
:10256000FEF7A9FD074607B9B2E0012F02D102200C
:102570006074C0E7781C10B901206074BBE7A761E4
:10258000A06800B9A760207C00F0800078B1E26903
:1025900003994878012304F12801FFF77FF910B16E
:1025A00001206074A7E7207C00F07F002074A169FF
:1025B0000398FEF773FD064616B9022060749AE789
:1025C000564403988089B5FBF0F9B9F1000F31D07A
:1025D0000AEB090003994989884203D90398408985
:1025E000A0EB0A09039948784B4632460299FFF757
:1025F00055F910B1012060747DE7E069801B484502
:1026000011D2E069831B0398B0F80CC0029803FB59
:102610000C010398828904F12800FDF7A7FD207CB6
:1026200000F07F002074039800E017E0808900FB31
:1026300009F835E0E069B0420FD0E168606988428E
:102640000BD2039948780123324604F12801FFF7A1
:10265000EEF810B1012060744DE7E66160690399FE
:102660008989B0FBF1F201FB120003998989A1EB82
:102670000008A84500D9A846606903998989B0FB7C
:10268000F1F201FB120104F12800084442460190D6
:102690000299FDF76BFD207C40F08000207400BFA4
:1026A000A5EB0805DBF800004044CBF800000298D9
:1026B00040440290606940446061E168606988421A
:1026C00001D9606900E0E068E060002D7FF426AF8A
:1026D00000BF207C40F04000207400200BE72DE973
:1026E000FF4107460D4600213846FEF767FC0646C7
:1026F000022E06D0032E00D21DB9304604B0BDE82C
:10270000F08100BF00240AE007F5F97101EB041124
:1027100001F1080000F053F94DF82400641C042C6A
:10272000F2D30DB1681E00E00020044600BF5DF842
:10273000240028B15DF824103846FEF73FFC00E085
:10274000032006462DB9022E03D3601C044604283C
:10275000EDD33046D2E72DE9F3410446276802E085
:102760000198401C0190019800782F28F8D001981A
:1027700000785C28F4D00020A06001980078202820
:1027800008D280212B20015500212046FEF7BBFFF7
:10279000054631E000BF01A92046FEF71FFD0546B2
:1027A00005B128E02B20065D2046FEF7E8FE054631
:1027B0003DB1042D04D100BF06F0040000B9052589
:1027C00019E006F0040000B115E0A07900F0100057
:1027D00008B905250FE0B9892069B0FBF1F201FBCA
:1027E000120107F1340001EB00084146384600F0C1
:1027F000F2F8A060CFE700BF2846BDE8FC810000EA
:1028000070B504460D46A1B20548FEF7D5FA00BFE3
:1028100080210348FEF756FA0028F9D0204670BD03
:10282000003801402DE9F05F81460D46D9F800409F
:10283000022D02D3A069A84202D84FF0010887E018
:102840004FF0FF382078012804D002283AD003281E
:102850007AD156E02E4606EB5606A089B6FBF0F07C
:10286000A16A00EB010A5146204600F02FFC00B19E
:102870006DE03046761CA189B0FBF1F201FB12013C
:1028800004F13400475CA089B6FBF0F0A16A00EBCC
:10289000010A5146204600F019FC00B157E0A0891A
:1028A000B6FBF0F100FB116104F13400405C47EA33
:1028B000002705F0010008B1380901E0C7F30B005B
:1028C000804644E0B4F80CA00AEBDA704010B5FB87
:1028D000F0F0A16A00EB010B5946204600F0F6FB30
:1028E00000B134E06800A189B0FBF1F201FB1201F4
:1028F00004F1340001EB000A504600F05AF880461B
:1029000025E0B4F80CA04FEAEA700AEB9070801052
:10291000B5FBF0F0A16A00EB010B5946204600F030
:10292000D5FB00B113E0A800A189B0FBF1F201FBD7
:10293000120104F1340001EB000A504600F03FF8A8
:1029400020F0704803E0FFE74FF0010800BF00BF30
:102950004046BDE8F09F0000004870470000214657
:1029600030B5044620680146024611B94FF0FF30E9
:1029700030BD00BF12F8013B212B01D33A2BF9D116
:102980003A2B14D102250878302808DB087839283A
:1029900005DC881C904202D10878A0F13005022D98
:1029A00002DB4FF0FF30E3E722602846E0E700203B
:1029B000DEE7014648780A7842EA0020704701467F
:1029C000C8788A7842EA00204A7842EA00200A78E9
:1029D00042EA0020704770B505460C4604F11A0023
:1029E000FFF7E7FF06462878032805D104F1140015
:1029F000FFF7DFFF46EA0046304670BD10B5FDF731
:102A00003BFDFDF725FDFEF70FF95EA0FEF7DAF9B5
:102A100001226AA16A48FFF7E9FA6A490870084684
:102A200000780D2829D168A0FEF7CCF94FF4805327
:102A30006F4A002161A0FEF763FF624908700846F3
:102A4000007888B96BA0FEF7BDF901225BA10020D8
:102A5000FFF7CCFA5B490870012258A15848FFF7EC
:102A6000C5FA5849087017E0FDF7CAFC55480178C7
:102A700067A0FEF7A7F900BFFEE75248007840B113
:102A8000FDF7BEFC4F48017868A0FEF79BF900BF38
:102A9000FEE76CA0FEF796F96FA0FEF793F90A2205
:102AA00075A17848FFF7D2FA4649087008460078C1
:102AB00000281ED174A0FEF785F97E4B0E227E49B8
:102AC0007048FFF702FD3F4908700846007828B9B2
:102AD0007848016879A0FEF775F906E03948027870
:102AE000744801687FA0FEF76DF96648FEF7F6FEB0
:102AF00006E0FDF785FC3348017885A0FEF762F912
:102B00008AA0FEF75FF901225BA15E48FFF79EFAFB
:102B10002C49087008460078002822D1FDF784FC73
:102B20008AA0FEF74FF9634B4FF480628D495548F8
:102B3000FFF78EFB234908700846007848B9894999
:102B400089A0FEF73FF95B4801688CA0FEF73AF9CF
:102B50000CE0FDF755FC1B48017892A0FEF732F916
:102B600004E0FDF74DFC96A0FEF72CF94548FEF772
:102B7000B5FE012211A10020FFF738FA11490870B3
:102B8000002010BD0D0A2054686973206973206607
:102B90006F722074657374696E67205350492043C7
:102BA0006F6D6D756E69636174696F6E207769749E
:102BB0006820466C617368200D0A0000313A0000FD
:102BC00044000020140000200D0A204E6F2066698A
:102BD0006C652073797374656D2E20466F726D611C
:102BE0007474696E67206465766963650D0A000018
:102BF000A02400200D0A20466F726D617474696E06
:102C000067207375636365656465640D0A00000081
:102C10000D0A20466F726D617474696E672066617B
:102C2000696C656420282564290D0A000D0A204D71
:102C30006F756E74204661696C656420282564296F
:102C40000D0A00000D0A204D6F756E7420537563D8
:102C5000636573730D0A00000D0A205468697320C0
:102C6000697320666F722074657374696E6720776C
:102C700072697465200D0A00313A746573742E749C
:102C800078740000781000200D0A2043726561748A
:102C9000656420746573742066696C652C206E6FA2
:102CA000772074727920746F2077726974650D0AC9
:102CB00000000000180000201C0000200D0A204425
:102CC00061746120777269746520737563636565EB
:102CD000642C2077726F7465202564206279746596
:102CE000730D0A000D0A20446174612077726974C3
:102CF00065206661696C65642C2077726F7465204D
:102D000025642062797465730D0A202825642900E2
:102D10000D0A2046696C65204F70656E204661691A
:102D20006C656420282564290D0A00000D0A2054D2
:102D300068697320697320666F72207465737469A3
:102D40006E672072656164200D0A00000D0A20463E
:102D5000696C65206F70656E20737563636565646B
:102D6000200D0A00A02000200D0A2044617461207B
:102D7000526561643A202573200D0A000D0A204433
:102D80006174612072656164207375636365656455
:102D90002C20726561642025642062797465730D4E
:102DA0000A0000000D0A20446174612052656164CC
:102DB000204661696C656420282564290D0A00009D
:102DC0000D0A2046696C65206F70656E206661692A
:102DD0006C6564200D0A00002DE9F74F84B00021D6
:102DE000059801600498FFF7BBFD03900398002845
:102DF00003DA0B2007B0BDE8F08FAE49039851F815
:102E000020400CB90C20F5E705980460069800F006
:102E1000FE000690207878B16078FEF727FD07461F
:102E200007F0010040B9069820B107F0040008B18E
:102E30000A20DFE70020DDE7002020706078FEF741
:102E4000B5FC074607F0010008B10320D2E7069859
:102E500020B107F0040008B10A20CBE7607804F144
:102E60000C020221FEF7BEFC08B10120C2E7A089D6
:102E7000B0F5805F07DCA089B0F5007F03DBA08997
:102E8000411E084008B10120B4E700212046FFF7A9
:102E900026FC0546042D01D10120ABE7022D01D30C
:102EA0000D20A7E7D4F8209004F13F00FFF781FD43
:102EB000A189884201D00D209CE704F14A00FFF768
:102EC00078FD064626B904F15800FFF778FD06465E
:102ED000E6614420005DE070E078012804D0E078ED
:102EE000022801D00D2085E7E07846434120005DAF
:102EF0006081608918B16089411E084008B10D20C9
:102F000078E704F14500FFF754FD2081A089C1173F
:102F100000EBD1614911228992FBF1F301FB1321EE
:102F200009B10D2066E704F14700FFF742FD824634
:102F3000BAF1000F04D104F15400FFF740FD8246BE
:102F400004F14200FFF735FD8346BBF1000F01D1CC
:102F50000D204FE7A089C11700EBD16149112289EB
:102F600092FBF1F10BEB06021144029102998A45A2
:102F700001D20D203EE70298AAEB00006189B0FB68
:102F8000F1F8B8F1000F01D10D2033E700254A48D0
:102F9000804500D803254FF6F570804500D80225FE
:102FA00040F6F570804500D801250DB90D2021E7C8
:102FB00008F10200A061C4F8249009EB0B00A062A4
:102FC000029848442063032D13D104F15E00FFF7FB
:102FD000F0FC08B10D200DE7208908B10D2009E7AC
:102FE00004F16000FFF7EBFCE062A0698000019053
:102FF00014E0208908B90D20FCE6A06A3044E062A4
:10300000022D02D1A069400007E0207E00F00100FF
:10301000A16901EB410100EB51000190A089401E24
:1030200001990844A189B0FBF1F0E169884201D916
:103030000D20DFE64FF0FF3060612061802060717D
:10304000032D2CD104F16400FFF7B3FC012826D135
:1030500009F10101204600F039F800BB0020607141
:1030600004F13400FFF7ABFC1449884217D104F592
:103070000670FFF7A4FC1249884210D104F50C70C9
:10308000FFF79DFC0F49884209D104F50770FFF74F
:1030900096FC606104F50870FFF791FC20612570D3
:1030A00009480088401C80B207490880E080002061
:1030B000A0E6000034000020F5FFFF0F52526141EE
:1030C00072724161000055AA3C00002070B50446B0
:1030D0000D460026206AA84210D0204600F092F942
:1030E00006465EB9607801232A4604F13401FEF7F2
:1030F0009EFB10B14FF0FF3501262562304670BDB2
:103100002DE9F05F04460D4616464FF00209022DE8
:1031100072D3A069A8426FD92078012804D0022870
:1031200057D0032811D179E02F4607EB5707A08924
:10313000B7FBF0F0A16A00EB010A51462046FFF709
:10314000C5FF8146B9F1000F00D09DE038467F1CD5
:10315000A189B0FBF1F201FB120104F1340001EB93
:10316000000805F0010028B1F1B298F8000061F301
:103170001F1000E0304688F8000001202071A0896F
:10318000B7FBF0F0A16A00EB010A51462046FFF7B9
:103190009DFF8146B9F1000F00D075E0A089B7FB13
:1031A000F0F100FB117104F1340001EB000805F0AF
:1031B000010010B1C6F3071006E098F8000000F017
:1031C000F000C6F30321084388F8000001202071B5
:1031D0005AE0B4F80CA00AEBDA704010B5FBF0F03E
:1031E000A16A00EB010B59462046FFF76FFF8146AD
:1031F000B9F1000F01D047E047E06800A189B0FBBA
:10320000F1F201FB120104F1340001EB000AB1B24A
:10321000504600F08AF80120207135E0B4F80CA087
:103220004FEAEA700AEB90708010B5FBF0F0A16AEB
:1032300000EB010B59462046FFF748FF8146B9F1E4
:10324000000F00D020E0A800A189B0FBF1F201FB43
:10325000120104F1340001EB000A5046FFF7AFFB06
:1032600066F31B000646A800A189B0FBF1F201FB42
:10327000120104F1340001EB000A3146504600F01F
:103280005AF80120207100BF00BF4846BDE8F09FFA
:103290002DE9F04781460E4617464FF00008D9F851
:1032A0000040022E02D3A069B04202D80220BDE83D
:1032B000F08767B100BF4FF0FF3239462046FFF775
:1032C0001FFF8046B8F1000F01D04046EFE700BF76
:1032D00031464846FFF7A6FA054605B922E0012D1A
:1032E00001D10220E3E7681C08B90120DFE70022D2
:1032F00031462046FFF704FF8046B8F1000F01D0A9
:103300004046D4E7D4E90510801E814206D26069A8
:10331000401C6061607940F0010060712E46A06938
:10332000B042D5D800BF0020C1E700F8011B091248
:1033300000F8011B704700F8011B090A00F8011B87
:10334000090A00F8011B090A00F8011B704770B553
:1033500006460C461546A9B204F11A00FFF7E5FF30
:103360003078032804D1290C04F11400FFF7DDFFA5
:1033700070BD000070B50446204600F043F80546D5
:10338000002D37D1607901282DD10020607120787F
:10339000032828D14FF4805104F13400FCF7FFFEDC
:1033A000154904F13400FFF7C6FF144904F506700F
:1033B000FFF7C1FF04F507706169FFF7BCFF04F573
:1033C00008702169FFF7B7FF0D4904F50C70FFF78E
:1033D000B2FF616A491C0A4621626078012304F148
:1033E0003401FEF75BFA607800221146FEF7FAF925
:1033F00000B10125284670BD52526141727241618F
:10340000000055AA70B5044600252079E8B160781F
:10341000012304F13401226AFEF740FAA0B900202A
:103420002071A16A206A401AE16988420DD2E078D1
:1034300002280AD1D4E90731CA186078012304F1BF
:103440003401FEF72BFA00E00125284670BD70B567
:1034500004460D4609268CB1206878B120680078B2
:1034600060B1A0882168C988884207D1216848785E
:10347000FEF7FCF900F0010000B900260EB9206843
:1034800000E000202860304670BD000081FE000092
:10349000407E80FE0000010004001000400000019A
:1034A00000020000010002000400080010002000DB
:1034B0000000000007000000000000000000000005
:1034C00000000000E4340008000000204400000078
:1034D000E40D000828350008440000205C38000096
:1034E000F40D0008000000000102030401020304BF
:1034F000060708090204060800000000000000009A
:1035000048656C6C6F20576F726C640D0A00000088
:1035100000000000000000000000000000000000AB
:083520000000000000000000A3
:0400000508000149A5
:00000001FF
