:020000040800F2
:100000004804002049010008F90400081904000808
:10001000F504000857020008110E00080000000057
:10002000000000000000000000000000250B000898
:100030005B02000800000000FB040008110C00082F
:100040006301000863010008630100086301000800
:1000500063010008630100087102000863010008E1
:1000600063010008630100086301000863010008E0
:1000700063010008630100086301000863010008D0
:1000800063010008630100086301000863010008C0
:1000900063010008630100086301000863010008B0
:1000A00063010008630100086301000863010008A0
:1000B0006301000863010008630100086301000890
:1000C0006301000863010008630100086301000880
:1000D0006301000863010008630100086301000870
:1000E0009102000863010008630100086301000831
:1000F0006301000863010008630100086301000850
:10010000630100086301000863010008630100083F
:10011000630100086301000863010008630100082F
:10012000630100086301000863010008630100081F
:10013000DFF810D000F04CF80048004739110008F3
:10014000AFF3008048040020064880470648004777
:10015000FEE7FEE7FEE7FEE7FEE7FEE7FEE7FEE777
:10016000FEE7FEE7190C0008310100082DE9F05FF9
:100170000546002092469B46884606468146402416
:100180001BE0284641464746224600F042F85346C7
:100190005A46C01A914110D311461846224600F023
:1001A00029F82D1A67EB01084F462246012000214D
:1001B00000F020F817EB00094E41201EA4F10104C5
:1001C000DFDC484631462A464346BDE8F09F000042
:1001D000064C074D06E0E06840F0010394E8070094
:1001E00098471034AC42F6D3FFF7A6FF0C13000873
:1001F0002C130008202A04DB203A00FA02F1002028
:1002000070479140C2F1200320FA03F31943904054
:100210007047202A04DB203A21FA02F000217047BF
:1002200021FA02F3D040C2F120029140084319465E
:10023000704710B5034607E018780C78A04201D04B
:10024000002010BD5B1C491C101EA2F10104A2B2CB
:10025000F2D10120F5E700BFFEE7704701B502E0EB
:100260000098401E009000980028F9D108BD0000B9
:1002700010B5012000F024F830B12021034800F02F
:10028000C2F8012000F016F810BD0000000C01407B
:1002900010B54FF4005000F013F838B101210448B4
:1002A00000F0B1F84FF4005000F004F810BD000069
:1002B000000C01400149086070470000140401402F
:1002C000014600200022074B1B6803EA0102054B90
:1002D00014331B680B4013B10AB1012000E0002069
:1002E00070470000000401402DE9F041024600255E
:1002F0000026002000230024002791F803C00CF002
:100300000F0591F803C00CF0100CBCF1000F03D0E6
:1003100091F802C04CEA050591F800C0BCF1000F4D
:1003200031D0146800202BE04FF0010C0CFA00F3E0
:10033000B1F800C00CEA03069E4220D183004FF0C2
:100340000F0C0CFA03F7BC4305FA03FC4CEA040457
:1003500091F803C0BCF1280F06D14FF0010C0CFA44
:1003600000FCC2F814C00AE091F803C0BCF1480FC9
:1003700005D14FF0010C0CFA00FCC2F810C0401C73
:100380000828D1D31460B1F800C0BCF1FF0F34DDF0
:10039000546800202EE000F1080C4FF0010808FA24
:1003A0000CF3B1F800C00CEA03069E4221D1830091
:1003B0004FF00F0C0CFA03F7BC4305FA03FC4CEAB0
:1003C000040491F803C0BCF1280F05D100F1080C1A
:1003D00008FA0CF8C2F8148091F803C0BCF1480F79
:1003E00007D100F1080C4FF0010808FA0CF8C2F828
:1003F0001080401C0828CED35460BDE8F0814161D4
:10040000704701617047C2684A40C26070470AB1D4
:10041000016100E04161704700BFFEE704480068E9
:1004200020B103480068401E014908607047000081
:100430002C00002010B5002220210748FFF7E7FF1D
:10044000012211460448FFF7E2FF0122022102487F
:10045000FFF7DDFF10BD0000000C014010B50122C8
:1004600020210748FFF7D3FF002201210448FFF7AE
:10047000CEFF012202210248FFF7C9FF10BD000094
:10048000000C014010B5012220210748FFF7BFFFF3
:10049000012211460448FFF7BAFF00220221024858
:1004A000FFF7B5FF10BD0000000C014008B50121A9
:1004B000082000F023F82020ADF8000003208DF87C
:1004C000020010208DF8030069460948FFF70CFF71
:1004D0000120ADF8000069460548FFF705FF02203E
:1004E000ADF8000069460248FFF7FEFE08BD0000B7
:1004F000000C014000BFFEE77047704729B1064A73
:1005000092690243044B9A6104E0034A9269824370
:10051000014B9A61704700000010024030B5002185
:100520000022002400232D4D6D6805F00C0121B13F
:10053000042905D0082923D105E0294D056022E0D2
:10054000274D05601FE0254D6D6805F47012234DA1
:100550006D6805F48034022505EB92421CB9214DEB
:10056000554305600BE01D4D6D6805F400351DB168
:100570001C4D5543056002E0194D5543056002E0EE
:10058000174D056000BF00BF144D6D6805F0F00108
:100590000909154D6B5C0568DD4045600F4D6D68C0
:1005A00005F4E061090A104D6B5C4568DD4085602B
:1005B0000A4D6D6805F46051C90A0B4D6B5C4568C6
:1005C000DD40C560054D6D6805F44041890B074D60
:1005D0006B5CC568B5FBF3F5056130BD00100240EA
:1005E00000127A0000093D000000002010000020E9
:1005F00021B1028842F04002028004E002884FF6F6
:10060000BF731A400280704700B587B0012108030C
:10061000FFF774FF01211020FFF770FF0121042074
:10062000FFF76CFF01210420FFF768FF0121042080
:10063000FFF764FF0120ADF8180003208DF81A00C1
:1006400010208DF81B0006A92148FFF74DFE202041
:10065000ADF8180018208DF81B0006A91D48FFF7FB
:1006600043FE4020ADF8180006A91A48FFF73CFEEB
:100670008020ADF8180006A91648FFF735FE0121C5
:100680001348FFF7BEFE0020ADF810000120ADF8C2
:100690000C000220ADF80A000720ADF8140000207D
:1006A000ADF80800ADF80400ADF812004FF4827008
:1006B000ADF806004FF40070ADF80E0001A9064831
:1006C00000F0F2F901210448FFF792FF07B000BDE6
:1006D00000100140000801400030014070B505469F
:1006E0000C46164601211048FFF789FE032000F052
:1006F0006BF9C4F3074000F067F9C4F3072000F07A
:1007000063F9E0B200F060F903E000F035F9287019
:100710006D1C301EA6F101018EB2F6D101210248F6
:10072000FFF76FFE70BD0000001001402DE9F05F83
:1007300007460E4614464FF00009C846C24600253B
:10074000AB4606F0FF0ACAF10000C5B22046E11729
:1007500004EB1161C1F30729E11704EB11610912E0
:10076000A4EB012101F0FF08BAF1000F23D1B9F188
:10077000000F05D122463146384600F06BF867E09D
:1007800009E04FF480723146384600F063F807F50F
:10079000807706F58076B9F10000A9F1010101F03A
:1007A000FF09EED1B8F1000F52D04246314638462B
:1007B00000F050F84CE0B9F1000F18D1A84510DD59
:1007C000A8EB050000F0FF0B2A463146384600F042
:1007D00041F82F442E445A463146384600F03AF844
:1007E00036E042463146384600F034F830E0601BCF
:1007F00084B22046E11704EB1161C1F30729E11728
:1008000004EB11610912A4EB012101F0FF082A4653
:100810003146384600F01EF82F442E4409E04FF4CC
:1008200080723146384600F015F807F5807706F5F6
:100830008076B9F10000A9F1010101F0FF09EED1C4
:10084000B8F1000F04D042463146384600F002F8B5
:10085000BDE8F09F70B505460C46164600F006F957
:1008600000F0ECF801211548FFF7C9FD022000F067
:10087000ABF8C4F3074000F0A7F8C4F3072000F07A
:10088000A3F8E0B200F0A0F8B6F5807F04DD4FF4E5
:1008900080760BA000F0BEFA03E0287800F094F810
:1008A0006D1C301EA6F101018EB2F6D10121034864
:1008B000FFF7A7FD00F0C2F870BD00000010014076
:1008C0003C3C2D464C4153482D4552524F522D3EF3
:1008D0003E2053504920466C6173682077726974DA
:1008E000652073697A6520746F6F206C617267652B
:1008F000210A000010B5002401210C48FFF77FFDFC
:10090000AB2000F061F8FF2000F05EF8FF2000F05F
:100910005BF8FF2000F058F800F02EF804460121A3
:100920000248FFF76EFD204610BD00000010014098
:100930002DE9F041002400250026002701210D4863
:10094000FFF75DFD9F2000F03FF800F015F8054629
:1009500000F012F8064600F00FF80746012105489E
:10096000FFF74FFD280440EA062040EA070420462E
:10097000BDE8F0810010014010B5FF2000F024F820
:1009800010BD000010B5044600F070F800F056F8F5
:1009900001210C48FFF733FD202000F015F8C4F3C7
:1009A000074000F011F8C4F3072000F00DF8E0B2A2
:1009B00000F00AF801210348FFF723FD00F03EF89C
:1009C00010BD00000010014010B504464FF48050E7
:1009D000184908600BE0174801680068401E154A76
:1009E000106021B9002000F07DF8C0B210BD0221D6
:1009F000114800F04BF80028EDD021460E4800F0D9
:100A000051F80BE00B4801680068401E094A10606D
:100A100021B9002000F066F8C0B2E7E701210648DE
:100A200000F034F80028EDD0034800F038F8C0B2E8
:100A3000DCE70000300000200030014010B501214B
:100A40000948FFF7DCFC0520FFF7BEFF00BFFFF7FA
:100A500093FF044604F001000028F8D10121024868
:100A6000FFF7CFFC10BD00000010014010B50121C0
:100A70000548FFF7C4FC0620FFF7A6FF0121024846
:100A8000FFF7BFFC10BD000000100140024600202F
:100A900013890B400BB1012000E000207047014694
:100AA000888970478181704710B50022028802F45E
:100AB00041520B884C8823438C882343CC882343A2
:100AC0000C8923434C8923438C892343CC892343BA
:100AD0001A430280838B4FF2FF74234083830B8A77
:100AE000038210BD10B50446214602A000F092F921
:100AF000002010BD3C3C2D464C4153482D455252E0
:100B00004F522D3E3E205350492074696D65206F31
:100B1000757421206572726F72436F6465203D2089
:100B200025640A00704710B500F002F810BD0000FF
:100B30000CB50020019000903348006840F48030EC
:100B40003149086000BF3048006800F40030009070
:100B50000198401C0190009818B90198B0F5A06F59
:100B6000F1D12948006800F4003010B10120009054
:100B700001E0002000900098012843D1234800683C
:100B800040F01000214908600846006820F003008A
:100B900008600846006840F0020008601A48406893
:100BA000194948600846406848600846406840F473
:100BB000806048600846406820F47C104860084621
:100BC000406840F4E81048600846006840F08070D3
:100BD000086000BF0C48006800F000700028F9D0E1
:100BE0000948406820F0030007494860084640680B
:100BF00040F00200486000BF0348406800F00C006D
:100C00000828F9D10CBD000000100240002002406D
:100C100010B5FFF703FC10BD10B51348006840F095
:100C200001001149086008464068104908400E4913
:100C30004860084600680E4908400B4908600846AD
:100C4000006820F4802008600846406820F4FE0018
:100C500048604FF41F008860FFF765FF4FF00060A9
:100C60000449086010BD0000001002400000FFF8B9
:100C7000FFFFF6FE08ED00E000B585B00121880316
:100C8000FFF73CFC01210420FFF738FC4FF4E13072
:100C900001900020ADF810000C20ADF80E000020EF
:100CA000ADF80800ADF80C00ADF80A0001A9114834
:100CB00000F03EF84FF40070ADF8000003208DF80E
:100CC000020018208DF8030069460B48FFF70CFB63
:100CD0004FF48060ADF8000004208DF803006946F1
:100CE0000548FFF701FB0121024800F007F805B0B5
:100CF00000BD0000003801400008014021B1828998
:100D000042F40052828104E082894DF6FF731A405A
:100D10008281704702460020B1F5007F00D100BFFC
:100D200013880B400BB1012000E000207047000049
:100D30002DE9F04786B005460E460024A24600BFC6
:100D4000A1460027B08900B100BF2F462C8A4CF67F
:100D5000FF700440F08804432C82AC894EF6F310F7
:100D60000440B08831890843718908430443AC8149
:100D7000AC8A4FF6FF400440B0890443AC8201A81E
:100D8000FFF7CCFB1F48874202D1DDF810A001E03D
:100D9000DDF80CA0A88900F4004040B10AEBCA00BD
:100DA00000EB0A1031684900B0FBF1F807E00AEBEC
:100DB000CA0000EB0A1031688900B0FBF1F864202A
:100DC000B8FBF0F004012009642101FB1089A88917
:100DD00000F4004040B1322000EBC900B0FBF1F05C
:100DE00000F00700044308E0322000EB0910642102
:100DF000B0FBF1F000F00F0004432C8106B0BDE819
:100E0000F087000000380140C1F30802828070477B
:100E100000BFFEE70FB4054B10B503A9044A0298C2
:100E200000F018F810BC5DF814FB00001511000864
:100E30003400002002E008C8121F08C1002AFAD1BD
:100E400070477047002001E001C1121F002AFBD14A
:100E5000704700002DE9FF4F8DB09B460F460446BA
:100E6000002606E025280BD05A460F999047641CAF
:100E7000761C20780028F5D111B03046BDE8F08FFF
:100E80000025A8460122984900E0054314F8013FD7
:100E9000203B02FA03F00842F7D120782E2817D120
:100EA00014F8010F45F004052A280ED06FF02F0228
:100EB0002078A0F1300109290AD808EB880102EB5B
:100EC000410100EB0108641CF2E757F8048B641C35
:100ED00020786C280DD004DC4C2812D06A2811D15F
:100EE00004E074280DD07A280CD10AE045F40015EE
:100EF00007E0617845F48015814202D1641C05F554
:100F00008015641C2078692844D008DC0028B3D000
:100F1000582867D063280FD0642808D13AE0702899
:100F200065D0732812D075285AD078285AD05A46DE
:100F30000F999047761CD5E017F8040B8DF8000048
:100F400000208DF80100E946012003E057F8049BDA
:100F50004FF0FF3069074FF0000501D40AE06D1C27
:100F600045450DDA8542FADB19F805100029F6D15E
:100F700006E06D1C8542FCDB19F805100029F8D14C
:100F80002E4404E019F8010B5A460F9990476D1E44
:100F9000F8D2A7E00A200021CDE90801C5F30250EC
:100FA00002280CD001CFC117021E71F100020CDA29
:100FB0000023D0EB030063EB01012D2208E0FF1DAD
:100FC00027F00707F7E80201EEE72A0504D52B22F0
:100FD0008DF8282001223CE0EA073AD02022F7E7EA
:100FE0000A2000E010200021CDE9080107E01020D0
:100FF000002145F00405CDE908014FF00808C5F3CC
:101000000250022810D001CF00214FF0000A2A0719
:1010100020D52278702A0DD0DDE908C38CF0100CA1
:101020005CEA030C0CD015E0FF1D27F00707F7E87A
:101030000201EAE740228DF828204FF0010A0CE077
:1010400050EA010306D030238DF828308DF829208E
:10105000022292462278582A04D024A20DF12009B7
:101060000B9209E026A2F9E7DDE90823FFF77EF8F5
:101070000B9B9B5C09F8013D50EA0102F4D1ADEBFA
:10108000090020300890680701D44FF00108089942
:10109000884503DD0898A8EB000000E000208046AA
:1010A000002506E00AA85A46405D0F9990476D1C3E
:1010B000761C5545F6DB04E030205A460F999047E0
:1010C000761CB8F10001A8F10108F5DC05E019F87B
:1010D000010B5A460F999047761C0899481E0890B4
:1010E0000029F4DC641CC4E60928010030313233E5
:1010F0003435363738396162636465660000000054
:10110000303132333435363738394142434445463D
:101110000000000070B504460D46A1B20548FFF777
:1011200073FE00BF80210348FFF7F4FD0028F9D0CB
:10113000204670BD0038014010B5FFF7B7F9FFF742
:10114000A1F9FFF799FD2AA0FFF764FEFFF75CFA0B
:10115000FFF7EEFB34490860C820FFF77FF8FFF780
:10116000C9FB32490860C820FFF778F82F480268A9
:101170002D4801682EA0FFF74DFE2B4800683A4924
:1011800088422ED139A0FFF745FE0020FFF7FAFB79
:101190000D2200213B48FFF7C9FA3A493AA0FFF770
:1011A00039FE0D2200214048FFF798FA3E493FA042
:1011B000FFF730FE0D223C493248FFF73AF842492A
:1011C000087008460078012805D1FFF747F93FA0CD
:1011D000FFF720FE0AE0FFF72DF941A0FFF71AFE06
:1011E00004E0FFF727F943A0FFF714FE002010BD2D
:1011F0000D0A205468697320697320666F72207429
:10120000657374696E672053504920436F6D6D7527
:101210006E69636174696F6E207769746820466CCB
:10122000617368200D0A00001800002014000020DF
:101230000D0A20466C617368494420697320307838
:1012400025582C094D616E756661637475726572FF
:1012500020446576696365204944206973203078AD
:1012600025580D0A000000001740EF000D0A204429
:101270006576696365204465746563746564200DF3
:101280000A0000001D0000200D0A20204461746146
:10129000207772697474656E206172653A202573D7
:1012A000200D0A2000000000380000200D0A202038
:1012B000446174612072656164206172653A202521
:1012C00073200D0A200000001C0000200D0A20548D
:1012D0006573742053756363656564200D0A0000AF
:1012E0000D0A2054657374204661696C6564200D95
:1012F0000A0000000D0A20446576696365206E6F60
:101300007420666F756E640D0A0000002C130008CF
:101310000000002038000000340E000864130008AC
:101320003800002010040000440E000800000000F7
:101330000102030401020304060708090204060867
:1013400000000000000000000048656C6C6F205732
:101350006F726C640D0A00000000000000000000C5
:041360000000000089
:0400000508000149A5
:00000001FF
