:020000040800F2
:100000002004002049010008C90300083903000842
:10001000C503000891010008FF0700080000000068
:10002000000000000000000000000000C104000803
:100030009501000800000000CB030008AD05000892
:100040006301000863010008630100086301000800
:1000500063010008630100089901000863010008BA
:1000600063010008630100086301000863010008E0
:1000700063010008630100086301000863010008D0
:1000800063010008630100086301000863010008C0
:1000900063010008630100086301000863010008B0
:1000A00063010008630100086301000863010008A0
:1000B0006301000863010008630100086301000890
:1000C0006301000863010008630100086301000880
:1000D0006301000863010008630100086301000870
:1000E000B90100086301000863010008630100080A
:1000F0006301000863010008630100086301000850
:10010000630100086301000863010008630100083F
:10011000630100086301000863010008630100082F
:10012000630100086301000863010008630100081F
:10013000DFF810D000F01AF8004800476109000805
:10014000AFF300802004002006488047064800479F
:10015000FEE7FEE7FEE7FEE7FEE7FEE7FEE7FEE777
:10016000FEE7FEE7B505000831010008064C074D23
:1001700006E0E06840F0010394E807009847103477
:10018000AC42F6D3FFF7D8FFE8090008080A0008D8
:1001900000BFFEE77047000010B5012000F024F812
:1001A00030B12021034800F0BEF8012000F016F81D
:1001B00010BD0000000C014010B54FF4005000F0DD
:1001C00013F838B10121044800F0ADF84FF40050A5
:1001D00000F004F810BD0000000C01400149086067
:1001E0007047000014040140014600200022074B24
:1001F0001B6803EA0102054B14331B680B4013B163
:100200000AB1012000E00020704700000004014016
:100210002DE9F0410246002500260020002300249D
:10022000002791F803C00CF00F0591F803C00CF003
:10023000100CBCF1000F03D091F802C04CEA050588
:1002400091F800C0BCF1000F31D0146800202BE001
:100250004FF0010C0CFA00F3B1F800C00CEA0306F1
:100260009E4220D183004FF00F0C0CFA03F7BC43E1
:1002700005FA03FC4CEA040491F803C0BCF1280F12
:1002800006D14FF0010C0CFA00FCC2F814C00AE0D1
:1002900091F803C0BCF1480F05D14FF0010C0CFAE6
:1002A00000FCC2F810C0401C0828D1D31460B1F87B
:1002B00000C0BCF1FF0F34DD546800202EE000F1D7
:1002C000080C4FF0010808FA0CF3B1F800C00CEA72
:1002D00003069E4221D183004FF00F0C0CFA03F766
:1002E000BC4305FA03FC4CEA040491F803C0BCF1DA
:1002F000280F05D100F1080C08FA0CF8C2F8148098
:1003000091F803C0BCF1480F07D100F1080C4FF081
:10031000010808FA0CF8C2F81080401C0828CED357
:100320005460BDE8F081C2684A40C26070470AB1BB
:10033000016100E04161704700BFFEE704480068CA
:1003400020B103480068401E014908607047000062
:100350001400002010B5002220210748FFF7E7FF16
:10036000012211460448FFF7E2FF01220221024860
:10037000FFF7DDFF10BD0000000C014008B50121B2
:10038000082000F023F82020ADF8000003208DF8AD
:10039000020010208DF8030069460948FFF738FF76
:1003A0000120ADF8000069460548FFF731FF022043
:1003B000ADF8000069460248FFF72AFF08BD0000BB
:1003C000000C014000BFFEE77047704729B1064AA4
:1003D00092690243044B9A6104E0034A92698243A2
:1003E000014B9A61704700000010024030B50021B7
:1003F0000022002400232D4D6D6805F00C0121B171
:10040000042905D0082923D105E0294D056022E003
:10041000274D05601FE0254D6D6805F47012234DD2
:100420006D6805F48034022505EB92421CB9214D1C
:10043000554305600BE01D4D6D6805F400351DB199
:100440001C4D5543056002E0194D5543056002E01F
:10045000174D056000BF00BF144D6D6805F0F00139
:100460000909154D6B5C0568DD4045600F4D6D68F1
:1004700005F4E061090A104D6B5C4568DD4085605C
:100480000A4D6D6805F46051C90A0B4D6B5C4568F7
:10049000DD40C560054D6D6805F44041890B074D91
:1004A0006B5CC568B5FBF3F5056130BD001002401B
:1004B00000127A0000093D0000000020100000201A
:1004C000704710B500F002F810BD00000CB5002018
:1004D000019000903348006840F480303149086052
:1004E00000BF3048006800F4003000900198401CC4
:1004F0000190009818B90198B0F5A06FF1D1294882
:10050000006800F4003010B10120009001E00020EC
:1005100000900098012843D12348006840F0100063
:10052000214908600846006820F00300086008467A
:10053000006840F0020008601A48406819494860A5
:100540000846406848600846406840F4806048605B
:100550000846406820F47C1048600846406840F433
:10056000E81048600846006840F08070086000BFEE
:100570000C48006800F000700028F9D00948406875
:1005800020F00300074948600846406840F0020038
:10059000486000BF0348406800F00C000828F9D10B
:1005A0000CBD0000001002400020024010B5FFF713
:1005B000C5FE10BD10B51348006840F00100114998
:1005C000086008464068104908400E4948600846DF
:1005D00000680E4908400B4908600846006820F48E
:1005E000802008600846406820F4FE0048604FF410
:1005F0001F008860FFF765FF4FF000600449086046
:1006000010BD0000001002400000FFF8FFFFF6FEE2
:1006100008ED00E000B585B001218803FFF7D6FEA4
:1006200001210420FFF7D2FE4FF4E13001900020B9
:10063000ADF810000C20ADF80E000020ADF8080059
:10064000ADF80C00ADF80A0001A9114800F03EF821
:100650004FF40070ADF8000003208DF80200182060
:100660008DF8030069460B48FFF7D2FD4FF4806018
:10067000ADF8000004208DF8030069460548FFF737
:10068000C7FD0121024800F007F805B000BD0000D9
:10069000003801400008014021B1828942F4005233
:1006A000828104E082894DF6FF731A40828170478F
:1006B00002460020B1F5007F00D100BF13880B4037
:1006C0000BB1012000E00020704700002DE9F04749
:1006D00086B005460E460024A24600BFA14600276C
:1006E000B08900B100BF2F462C8A4CF6FF70044041
:1006F000F08804432C82AC894EF6F3100440B08895
:1007000031890843718908430443AC81AC8A4FF6B0
:10071000FF400440B0890443AC8201A8FFF766FEA5
:100720001F48874202D1DDF810A001E0DDF80CA0DF
:10073000A88900F4004040B10AEBCA0000EB0A109F
:1007400031684900B0FBF1F807E00AEBCA0000EBA2
:100750000A1031688900B0FBF1F86420B8FBF0F0B2
:1007600004012009642101FB1089A88900F40040DC
:1007700040B1322000EBC900B0FBF1F000F00700FF
:10078000044308E0322000EB09106421B0FBF1F0D3
:1007900000F00F0004432C8106B0BDE8F087000094
:1007A0000038014001468888C0F308007047C1F353
:1007B00008028280704770B504460D4629462046DF
:1007C000FFF7F5FF00BF80212046FFF771FF0028EB
:1007D000F9D070BD70B506460C46002504E0615D99
:1007E0003046FFF7E8FF6D1C605D0028F7D100BFC1
:1007F00080213046FFF75CFF0028F9D070BD00BFB4
:10080000FEE700000FB4054B10B503A9044A029897
:1008100000F017F810BC5DF814FB0000390900085F
:100820001C00002002E008C8121F08C1002AFAD1EB
:1008300070477047002001E001C1121F002AFBD160
:1008400070472DE9F84F994692468846054600279D
:1008500006E025280AD051464A4690476D1C7F1C69
:1008600028780028F5D13846BDE8F88F002315F820
:10087000011F18462E2915D115F8011F04232A2916
:100880000DD06FF02F022978A1F13004092C09D87E
:1008900000EB800002EB400008446D1CF3E758F8C1
:1008A000040B6D1C2A78002ADDD0632A07D0732A36
:1008B0000FD0104651464A4690477F1C2AE018F850
:1008C000042B8DF8002000218DF801106E460121C7
:1008D00003E058F8046B4FF0FF315A074FF0000463
:1008E00001D409E0641C84420BDA8C42FADB325DED
:1008F000002AF7D105E0641C8C42FCDB305D002847
:10090000F9D1274404E016F8010B51464A469047B6
:10091000641EF8D26D1CA3E710B5044600BF202169
:100920000448FFF7C5FE0028F9D00248FFF73AFF58
:1009300010BD00000038014070B504460D46A1B25C
:100940000548FFF734FF00BF80210348FFF7B0FEE2
:100950000028F9D0204670BD00380140FFF7DCBF09
:10096000FFF70CFDFFF7F6FCFFF754FE12210A48D3
:10097000FFF721FF09A10848FFF72CFF0EA0FFF7A2
:1009800041FF00BF1348FFF7E9FFC4B2214612A0A0
:10099000FFF738FFF6E700000038014048656C6C4F
:1009A0006F2C20746869732069732061205541524F
:1009B0005420544553540A005465737420432073E3
:1009C00074616E64617264206C6962726172790A2A
:1009D00000000000180000205265636569766564B8
:1009E0003A2025630A000000080A000800000020E1
:1009F0002000000024080008280A00082000002029
:100A00000004000034080008000000000102030494
:100A1000010203040607080902040608000000009A
:080A20000000000000000000CE
:0400000508000149A5
:00000001FF
