:020000040800F2
:100000000004002049010008050500088D040008CF
:1000100001050008910100084507000800000000E4
:10002000000000000000000000000000F5050008CE
:100030009501000800000000D1050008E106000855
:100040006301000863010008630100086301000800
:1000500063010008630100089901000863010008BA
:1000600063010008630100086301000863010008E0
:1000700063010008630100086301000863010008D0
:1000800063010008630100086301000863010008C0
:1000900063010008630100086301000863010008B0
:1000A00063010008630100086301000863010008A0
:1000B0006301000863010008630100086301000890
:1000C0006301000863010008630100086301000880
:1000D0006301000863010008630100086301000870
:1000E000B90100086301000863010008630100080A
:1000F0006301000863010008630100086301000850
:10010000630100086301000863010008630100083F
:10011000630100086301000863010008630100082F
:10012000630100086301000863010008630100081F
:10013000DFF810D000F01AF8004800476707000801
:10014000AFF30080000400200648804706480047BF
:10015000FEE7FEE7FEE7FEE7FEE7FEE7FEE7FEE777
:10016000FEE7FEE7E506000831010008064C074DF2
:1001700006E0E06840F0010394E807009847103477
:10018000AC42F6D3FFF7D8FF7807000888070008CD
:1001900000BFFEE77047000010B5012000F024F812
:1001A00030B12021034800F068F9012000F016F872
:1001B00010BD0000000C014010B54FF4005000F0DD
:1001C00013F838B10121044800F057F94FF40050FA
:1001D00000F004F810BD0000000C01400149086067
:1001E0007047000014040140014600200022074B24
:1001F0001B6803EA0102054B14331B680B4013B163
:100200000AB1012000E00020704700000004014016
:10021000002123498279002A3AD00A4612680368ED
:100220009A430B461A600A1D126803689A430B1D15
:100230001A60027911440A6803681A430A60184A6E
:100240000832126803689A43154B08331A601A1D66
:10025000126803689A43124B0C331A604279102AD1
:100260000ED11A1F126803681A430D4B08331A6027
:100270001A1D126803681A43094B0C331A600DE00B
:100280000749427911440A6803681A430A6005E085
:10029000027911440A6803689A430A6070470000B3
:1002A000000401400EB50121152000F093F900F083
:1002B0002AF90120ADF8080003208DF80A00042077
:1002C0008DF80B0002A9154800F04CF800210846F3
:1002D00000F028F84FF40050ADF8080002A91048CB
:1002E00000F040F80D21022000F01CF801200090E1
:1002F0008DF8060000208DF8040008208DF8050018
:100300006846FFF785FF4FF4005000900C208DF8F1
:1003100005006846FFF77CFF0EBD000000080140A5
:100320000010014030B500228B071C0F0F2303FA89
:1003300004F20B4B8C1053F824309343084C8D106F
:1003400044F8253023468C1053F824308C07240FB2
:1003500000FA04F42343024C8D1044F8253030BDDC
:10036000080001402DE9F04102460025002600204A
:1003700000230024002791F803C00CF00F0591F82A
:1003800003C00CF0100CBCF1000F03D091F802C0B8
:100390004CEA050591F800C0BCF1000F31D014689B
:1003A00000202BE04FF0010C0CFA00F3B1F800C074
:1003B0000CEA03069E4220D183004FF00F0C0CFA8A
:1003C00003F7BC4305FA03FC4CEA040491F803C0AC
:1003D000BCF1280F06D14FF0010C0CFA00FCC2F85A
:1003E00014C00AE091F803C0BCF1480F05D14FF0EA
:1003F000010C0CFA00FCC2F810C0401C0828D1D334
:100400001460B1F800C0BCF1FF0F34DD5468002067
:100410002EE000F1080C4FF0010808FA0CF3B1F8D7
:1004200000C00CEA03069E4221D183004FF00F0C5E
:100430000CFA03F7BC4305FA03FC4CEA040491F8F8
:1004400003C0BCF1280F05D100F1080C08FA0CF824
:10045000C2F8148091F803C0BCF1480F07D100F135
:10046000080C4FF0010808FA0CF8C2F81080401C84
:100470000828CED35460BDE8F081C2684A40C2600B
:1004800070470AB1016100E04161704700BFFEE7BB
:1004900010B5002220210748FFF7F3FF0122114683
:1004A0000448FFF7EEFF012202210248FFF7E9FFAF
:1004B00010BD0000000C014008B50121082000F02B
:1004C00089F82020ADF8000003208DF802001020EC
:1004D0008DF8030069460948FFF744FF0120ADF895
:1004E000000069460548FFF73DFF0220ADF8000017
:1004F00069460248FFF736FF08BD0000000C0140C6
:1005000000BFFEE7704708B54FF4C06000F056F832
:1005100006208DF8000001208DF8030000208DF8E2
:1005200001008DF80200684600F010F828208DF8D0
:10053000000001208DF803008DF8010000208DF8E7
:100540000200684600F002F808BD000070B5002106
:1005500000230F22C47804B3154C246804F4E0642B
:10056000C4F5E064210AC1F10403CA40447804FAE6
:1005700003F184781440214309010E4C0678A155FB
:10058000047804F01F050124AC4005786D11AD001E
:1005900005F1E025C5F8004109E0047804F01F05E5
:1005A0000124AC40044D0678761145F8264070BD14
:1005B0000CED00E000E400E080E100E002490143CE
:1005C000024A1160704700000000FA050CED00E0DF
:1005D0007047000029B1064A92690243044B9A61B0
:1005E00004E0034A92698243014B9A61704700001C
:1005F00000100240704710B500F002F810BD000076
:100600000CB50020019000903348006840F4803021
:100610003149086000BF3048006800F400300090A5
:100620000198401C0190009818B90198B0F5A06F8E
:10063000F1D12948006800F4003010B10120009089
:1006400001E0002000900098012843D12348006871
:1006500040F01000214908600846006820F00300BF
:1006600008600846006840F0020008601A484068C8
:10067000194948600846406848600846406840F4A8
:10068000806048600846406820F47C104860084656
:10069000406840F4E81048600846006840F0807008
:1006A000086000BF0C48006800F000700028F9D016
:1006B0000948406820F00300074948600846406840
:1006C00040F00200486000BF0348406800F00C00A2
:1006D0000828F9D10CBD00000010024000200240A3
:1006E0007047000010B51348006840F00100114940
:1006F000086008464068104908400E4948600846AE
:1007000000680E4908400B4908600846006820F45C
:10071000802008600846406820F4FE0048604FF4DE
:100720001F008860FFF767FF4FF000600449086012
:1007300010BD0000001002400000FFF8FFFFF6FEB1
:1007400008ED00E000BFFEE702E008C8121F08C184
:10075000002AFAD170477047002001E001C1121F42
:10076000002AFBD17047FFF7A7FEFFF791FEFFF7C6
:1007700099FD00BFFEE70000880700080000002088
:08078000000400005807000806
:0400000508000149A5
:00000001FF
